:020000040000FA
:2000000000000820F50400000000010142000000000000000000000000000000C9FAF6DEE4
:200020000000000000000000000000000000000000000000000000000000000000000000C0
:200040000000000000000000000000000000000000000000000000000000000000000000A0
:20006000000000000000000000000000000000000000000000000000000000000000000080
:20008000000000000000000000000000000000000000000000000000000000000000000060
:2000A000000000000000000000000000000000000000000000000000000000000000000040
:2000C000000000000000000000000000000000000000000000000000000000000000000020
:2000E000000000000000000000000000000000000000000000000000000000000000000000
:200100000000000000000000000000000000000000000000000000000000000000000000DF
:200120000000000000000000000000000000000000000000000000000000000000000000BF
:2001400000000000000000000000000000000000000000000000000000000000000000009F
:2001600000000000000000000000000000000000000000000000000000000000000000007F
:2001800000000000000000000000000000000000000000000000000000000000000000005F
:2001A00000000000000000000000000000000000000000000000000000000000000000003F
:2001C00000000000000000000000000000000000000000000000000000000000000000001F
:2001E0000000000000000000000000000000000000000000000000000000000000000000FF
:200200000000000000000000000000000000000000000000000000000000000000000000DE
:200220000000000000000000000000000000000000000000000000000000000000000000BE
:2002400000000000000000000000000000000000000000000000000000000000000000009E
:2002600000000000000000000000000000000000000000000000000000000000000000007E
:2002800000000000000000000000000000000000000000000000000000000000000000005E
:2002A00000000000000000000000000000000000000000000000000000000000000000003E
:2002C00000000000000000000000000000000000000000000000000000000000000000001E
:2002E0000000000000000000000000000000000000000000000000000000000021436587AE
:2003000000F002F800F067F80AA090E8000C82448344AAF10107DA4501D100F05CF8AFF270
:20032000090EBAE80F0013F0010F18BFFB1A43F00103184728570000685700000A4410F8CC
:20034000014B14F00F0508BF10F8015B240908BF10F8014B6D1E05D010F8013B6D1E01F89E
:20036000013BF9D1641E03D0641E01F8015BFBD19142E4D370470000103A24BF78C878C198
:20038000FAD8520724BF30C830C144BF04680C60704700000023002400250026103A28BF11
:2003A00078C1FBD8520728BF30C148BF0B6070471FB59DE8030003F081FA02F0F9FB040023
:2003C0000020002103F0C2FF401C606002F0C6F91FBD10B510BD03F06BFB1146FFF7E8FF60
:2003E00000F07AF803F0A8FB03B4FFF7F2FF03BC00F0A6F8D0F800D0D0F804F000BF00BF48
:2004000000BF00BF704700BF00BF00BF00BF00BF00BF00BF00BF00BF00BF00BF70470000BB
:2004200000BF00BF00BF00BF7047000000BF00BF00BF00BF70470000FEB442464B465446F1
:200440005D463EB402F0C2FA3EBC90469946A246AB46FEBC00F030F880EC200B7047C0EC05
:20046000200B704790EC200B7047D0EC200B704785460D98DDF838E00F9B5DF8042B20E90A
:200480000C009DE8FE1F854601BD4DF808ED0DF1080E4DF804ED2DE9FF1F002102B46946E7
:2004A00081B002F036FEDDF840E012B07047000000570000005B00004DF808ED0DF1080E77
:2004C0004DF804ED2DE9FF1F002102B4694681B002F086BE704700BF10B501F097FB4FF4C4
:2004E000FA71032001F0BCFB00F02CF800F00EFF002010BD0948016841F4007101600848B7
:20050000016841F48021016006488047FEE7000005480649064A074B7047000014ED00E06B
:2005200024ED00E00103000000C007200000082000E0072000E007204FF0FF3070477047CD
:20054000FEE7000030B5EFF31081012282F31088184844F23A0303602023C0F8A03100BF6D
:20056000D0F8A0315B06FBD50323C0F80431C0F80C21114CC0F88440C0F88020AA24C0F802
:200580008C405522C0F88C20D0F888506D01FBD540F8803FC460C2600022C0F88820C0F85F
:2005A0002821C0F82C21054B4364C0F8482181F3108830BD00C00F403100020018804000C2
:2005C00010B5EFF31084012080F3108801F0C6FA00F056F800F004F884F3108810BD0000FD
:2005E00010B5EFF31084012080F3108800210C4800F064F884F3108810BD30B5094801249C
:20060000002300F1200281884D1E8580016801D30C6001E00B60838008309042F3D330BD76
:20062000FB050000201200100021016001207047EFF31081012282F310880268521C026041
:20064000012A01D10548016070470168491E016003D10248006880F310887047001200109D
:20066000064810B5046803E0D4E9011088472468002CF9D1BDE8104001F0E4BA041200104F
:2006800070B54FF0FF35EFF31084012080F310880849284601F0AAFA1F21284601F090FAA3
:2006A0004FF0E020044941610721016184F3108870BD0000610600009F86010070B5054649
:2006C0000C460C2003F086FDC0E90154EFF31081012282F31088064B064A1C6804B1136830
:2006E000186010600022026081F3108870BD000004120010081200100146064810B5006843
:2007000009B2002203681B689847002010BD0149086070470C1200102DE9F0470E46096899
:20072000824601F00F09002201F0EBF8002252A1504601F013F9C9F110044D46A046376864
:2007400006E000224DA1504601F008F96D1EEDB2002DF6D10EE038467F1C017800225046C5
:2007600001F0C1F8012C03D00021504601F095F8641EE4B2002CEED10021504601F08DF86A
:200780004C464546376805E00021504601F085F8641EE4B2002CF7D111E03C7801F0D2FF20
:2007A0000068005D10F03E0F01D0214600E02E210022504603F065FC6D1EEDB27F1C002DC2
:2007C000EBD10021504601F05FF8316801EB08003060BDE8F08777B581B015460646002100
:2007E00001F052F88DF80050002405E002A93046FFF792FF641CE4B29DF800008442F5D3FF
:200800002A466946304600F003F80028ECD17FBD70B516460D46044600223A2103F031FC7C
:2008200022682046002152689047201D01F007F9201D002101F0F5F851280ED007DC0D283D
:2008400011D01B2809D02028F2D12E700DE0582803D0712801D07828EAD10021204601F075
:2008600013F8002070BD0120287000220821204603F007FC012070BD3A2000002D2D20009E
:2008800010B5044600202080616001F6FF712046A16000F083F8204600F03CF8204610BDD2
:2008A0002DE9F04715460E460446184F4FF480594FF000084FF4802A22E000BF208816F8C4
:2008C000012B411C21803A542088484518D3A4F80080204600F02CF8204600F01BF8606879
:2008E00000F580506060A06800F58050A060504506D3012001F044FF0022054902F0ABF8DE
:200900006D1EADB2DAD2BDE8F0870000000200103851000000200549FF224FF480530A5487
:20092000401C80B29842FAD3704700000002001038B5044601F086F96946606801F0C0F8F2
:2009400030B1012001F01CFF00220C4902F083F801F078F99DF80010084601F0D1F800286E
:20096000EFD101F06FF90748054B61680288064801F074F80028E4D138BD00003851000066
:20098000A0860100FC4B00000002001010B50188002901D0FFF7CCFF10BD000010B501F04B
:2009A00051F91521082001F0ABF830B1012001F0E7FE0022064902F04EF801F043F9054AFE
:2009C0001521082001F064F80028EFD110BD000038510000A086010010B503F045FB0021EE
:2009E000203000F005FA154940F8201D18314160EFF31082012383F31088114951F8C44F9F
:200A000044F008040C600F4983240C7309240C7000240C71212481F828400C7B04F07F043E
:200A20000C730B7208490B6843F050030B600B6C43F020030B6482F3108810BD905400000B
:200A400000C00F4000C0004000C0024070B500F120060C46304600F0B5F9094D287DC00721
:200A600001D0287870BD002CF8D0304600F0B3F90028F3D04FF0FF3070BD001FE6E7000060
:200A800000C00040EFF31080012181F31088044A0321117280F310887047001FF2E7000007
:200AA00000C000402DE9F0410D4600F1200714461146384600F086F9084E307D800603D585
:200AC00035700020BDE8F081002CF6D0384600F082F90028F1D04FF0FF30F3E700C000402F
:200AE00070B500F120060C46304600F06BF9084D287D400601D5002070BD002CF8D03046D1
:200B000000F069F90028F3D04FF0FF3070BD000000C0004010B503F0A7FA0121203000F042
:200B200067F9194940F8201D18314160EFF31082012383F31088154951F8C44F44F01004EC
:200B40000C60134983240C7309240C7000240C7121248C620C7B04F07F040C730B720D49DA
:200B60000B6843F080430B604B6843F001034B6009490B6843F480030B604FF48003CB6130
:200B800082F3108810BD0000B854000000C00F400000014000C0024000C0092070B500F11E
:200BA00020060D46304600F00DF90F4C207DC0070ED00E48EFF31181F82282F312888369D4
:200BC00001221A600522828381F31188207870BD002DEBD0304600F0FEF80028E6D04FF019
:200BE000FF3070BD001FD9E70000014020120010EFF31080012181F31088044A03211172A2
:200C000080F310887047001FF2E70000000001402DE9F0410D4600F12007144611463846F8
:200C200000F0D0F80F4E307D800610D535700E48EFF31181F82282F31288036901221A60E6
:200C40000522828281F311880020BDE8F081002CE9D0384600F0BFF80028E4D04FF0FF30D2
:200C6000F3E70000000001402012001070B500F120060C46304600F0A5F8084D287D400646
:200C800001D5002070BD002CF8D0304600F0A3F80028F3D04FF0FF3070BD00000000014075
:200CA00010B503F0E1F90021203000F0A1F8A0F12004044820601830606001F035F920469A
:200CC00010BD00006854000070B500F120060C46304600F077F8104D286848B1002CFBD04B
:200CE000304600F078F80028F6D04FF0FF3070BD0A480122EFF31181F82383F31288836995
:200D00001A600522828381F31188BDE8704001F0B9B8001FD8E70000A40A38232012001040
:200D200010B5054C2068002802D101F0ABF8F9E710BD001FF4E70000A40A38232DE9F0418F
:200D40000D4600F1200714461146384600F03AF80F4E306850B1002CFBD0384600F03BF849
:200D60000028F6D04FF0FF30BDE8F0810124E8B201F0BAF80748EFF31181F82282F31288B3
:200D8000026914600522828281F311880020EBE7A00A38232012001010B501F093F80020A2
:200DA00010BD000070B5064D002400BF55F8240008B100F04BF8641CE4B2032CF6D370BD73
:200DC00014120010EFF31082012383F31088416082F310887047EFF31081012282F310882F
:200DE000406818B1002081F3108870470120FAE770B50446017000206060EFF31085012243
:200E000082F310880E4A42F821400E490A7822B1087000210C48FFF751FC85F31088204680
:200E200070BD10B5EFF31081012282F310880378034C002244F8232081F3108810BD0000D9
:200E40001412001010120010A50D00004168002901D0491E41607047F8B54FF40046746804
:200E6000B4B1601C14D00B48844211D84FF0FF30351D009015F8011B684600F059FB641EBE
:200E8000F8D100993068C943884201D10120F8BD0020F8BDF87F030073B505460089142457
:200EA000401C0E4628813146284600F01FF801207CBD01F04CFD01F025FD00207CBD01F0FC
:200EC00046FD641EE4B202D301F01CFDEBE701F019FD284600F0C8F8012001F051FC002260
:200EE000014901F0B8FD0000905100002DE9F341044640680D4600B1001D00F0A0FD20888F
:200F0000002201B2606803F0BCF815202060204600F06AF8204600F029F807462946204687
:200F200000F04EF80646204600F082F8864207D1002F16D000220621606803F0A2F8E6E73F
:200F4000012001F01DFC0022074901F084FD01F0FEFC606800B1001D642100F085FC01F01A
:200F60003FFCBDE8FC8100006451000070B5054600F05EF80446284600F05AF82044C04348
:200F800010F0FF0F05D0012001F0FAFB00220A4910E02889411EC9B2A14201D1012070BD74
:200FA000C0B2A04201D1002070BD012001F0E8FB0022024901F04FFD705100004C510000C1
:200FC0002DE9F04100250E4607462C46384600F02FF83055641C2844E4B2C5B2802CF5D30B
:200FE0002846BDE8F081000010B50446204600F01FF8012816D0042807D01828F6D10120B7
:2010000001F0BEFB002208490AE060680621002203681B689847012001F0B2FB00220349BE
:2010200001F019FD10BD0000585100008851000010B5406800B1001D4FF4FA6100F0F1FCA4
:20104000411C01D0C0B210BD012001F099FB0022014901F000FD00007C5100001522C0E976
:20106000002100210181704710B50446406800B1001D642100F0F8FB60681821002203687A
:201080001B6898476068002102685268904710BD10B50D4803F00AF808280AD20A4803F0DD
:2010A00005F808280FD2DFE800F0040404040E0E0404FFF7D1FE002805D0BDE8104048F246
:2010C0000800FFF797B910BD0001001031B5554C0546ADF5A86D002253A1206800F03EFC93
:2010E00029460DF22450FFF7B9FF684600F0FEFD002180F89414514A00F29440D2E9001258
:20110000C0E902124FF400410DF23450FFF7B8FB0DF2A4410DF22450FFF7BEFEF8B10DF5AE
:20112000A6620DF2A441684600F00EFABDF830250DF2A4410DF23450FFF7B2FB002240A106
:20114000206800F00BFCBDF82C150022206800F0E6FB00223BA1206800F000FCD8E700224C
:201160003AA1206800F0FAFB9DF8940400280DF234501AD0FFF70AFC002236A1206800F0F8
:20118000EDFB0021206802F079FF002235A1284600F0E4FB0021284602F070FF684602F08F
:2011A00085FD01200DF2445D30BDFFF7F7FB012001F0E6FA0022304901F04DFC01F0C7FB9D
:2011C00000222EA103E001F0C2FB002230A1206800F0C4FB01F096FB0DF22450FFF744FF35
:2011E0000021206802F04AFF281D40F6B83100F03BFB00222CA1284600F0B0FB00212846FA
:2012000002F03CFF684602F051FD0020CAE701F09EFB002229A1DAE701F099FB002231A132
:20122000D5E700000C1200100D0A446F776E6C6F6164696E672E2E2E0D0A000060460000F0
:20124000233A00002D4F4B2D0D0A00002D454F542D0D0A00446F776E6C6F6164204F4B0DCE
:201260000A0000000D0A5B444F574E4C4F41442D4F4B5D0D0A0000001C510000464C4153CC
:2012800048207772697465206572726F720D0A00584D4F44454D207472616E7366657220EB
:2012A0006572726F720D0A000D0A5B444F574E4C4F41442D4641494C5D0D0A00494D414748
:2012C0004520636F7272757074206F7220756E737570706F7274656420666F726D61740DFA
:2012E0000A000000496E7465726E616C206572726F72203A20556E657870656374656420AE
:20130000657863657074696F6E0D0A0010B5FFF7BFFEBDE8104000F001B80000F0B58BB0F1
:20132000FFF74EF901A8FFF757FB5A4C0025606B40F30070401C4FF0280014D002F04AFF64
:201340000746FFF7E7FB054601A8FFF7E0F9EFF31080012181F310884F49097880F31088E1
:20136000052907D029E002F035FF06460125FFF797FCE8E7002249A101A800F0EFFA0021C0
:2013800001A802F07BFE2846FFF7A0FE60B100224B4901A800F0E2FA002101A802F06EFED3
:2013A00003213D4802F076FE002246A101A800F0D5FA002101A802F061FE00224A4928466F
:2013C00000F0CCFA606B002440F30070401C35D046490022284600F0C1FA0022444928467D
:2013E00000F0BCFA0094A17A0A230222284600F0E9FA00222E21284602F043FE0094E17A05
:201400000A230222284600F0DDFA217B0022284602F037FE002237A1284600F09FFA00F012
:20142000AFFD01460022284602F02BFE00223449284600F093FA0024324E12E03249C8E7C4
:2014400032A1284600F08AFA315D0022284602F018FE00222921284602F013FE641C04F060
:201460000304281D642100F0DCFA20284FF00002E6D127A1284600F071FA0021284602F083
:20148000FDFD0521044802F005FE09A8FFF7C9FC0BB0F0BD00C00920000100100D0A426F55
:2014A0006F746C6F61646572203A20426567696E20646F776E6C6F61642E2E2E0D0A00005A
:2014C000285500000D0A426F6F746C6F61646572203A20446F776E6C6F6164206661696CFF
:2014E0006564210D0A0000006C55000050560000C05600002020485720566572203A2000C8
:20150000AC58000068460000E0550000080800000D0A0A426567696E20584D4F44454D20C4
:20152000646F776E6C6F6164206E6F772E0D0A000268D3B24B40034951F8231081EA1221BA
:20154000016070476C4600002DE9F041054604260020174688460C4610801AE0D5F87C0293
:2015600021465FF01F02006811F8013B521E00F8013B92B2F8D2D5F8A01405EB6100C90793
:201580000CD00168D5F89C248B583A46414698472034761EF6B2E1D2BDE8F081D5F89C34BA
:2015A000F3E700002DE9F04104460F46B0F89804B4F896141546884201D1012600E00026AD
:2015C00032462046D4F8A81200F0FBFB204600F02EFCD4F87C121A4B0968CA7F904202D024
:2015E000002218A104E0887F1E280BD900221CA1186800F0B3F9012001F0C2F800222149A8
:2016000001F029FA2A8803463A4403E011F8017B02F8017B5B1E9BB2F8D22988084428802A
:201620003EB1194904F29C44D1E9000103C4BDE8F081B4F89804401CA4F89804F7E7000031
:201640000C1200104552523A20446174612043524320696E76616C6964210D0A0000000068
:201660004552523A20496E76616C696420696D6167652064617461206C656E677468210DB3
:201680000A0000001C5100006C4A000070B50446002200F52B7100F094FB204600F0C7FB64
:2016A000D4F87C22034616481168CD7FAB4202D0002214A11AE0097811B1002218A115E0B1
:2016C0000121A4F8981411688A78497802EB01210904090CA4F8961406D0194904F29C44DF
:2016E000D1E9000103C470BD002216A1006800F035F9012001F044F80022194901F0ABF975
:201700000C1200104552523A204865616465722043524320696E76616C6964210D0A0000D8
:201720004552523A20496D61676520666F726D617420494420696E76616C6964210D0A00EE
:20174000744A00004552523A20496D616765206C656E677468207A65726F210D0A000000EB
:201760001C51000010B5044600F050FB034904F29C44D1E9000103C410BD00007C4A00007B
:2017800010B5044600F51F7004F5097100F013FF90F0010F0CD0124800220BA1006800F055
:2017A000DDF8012000F0ECFF00220E4901F053F9012084F894040C4904F29444D1E900018F
:2017C000C4E9020110BD00004552523A204D4143204D69736D61746368210D0A00000000EA
:2017E0000C1200101C510000844A00007047000037B50446002200F52B7100F0E2FAD4F848
:201800007C020168204600F0A7FA0B4904F29C44D1E9000103C43EBD01F099F81048002247
:2018200006A1006800F09AF8012000F0A9FF00220C4901F010F900008C4A00004552523AF4
:201840002043616E2774206372656174652073657373696F6E206B6579210D0A0000000062
:201860000C1200101C51000070B50D00044600D10125016849688847226820462946126898
:201880009047401CF8D170BD0A4611A100F066B8026813680A4607211847026813680A461E
:2018A0002021184770B50E46054600242B6809A128461B68095D32469847401C05D0641C04
:2018C000E4B2032CF2D3002070BD4FF0FF3070BD0D0A00000820080008B5022300920822B1
:2018E00000F070F808BD08B510230092022200F069F808BD08B510230092042200F062F81D
:2019000008BD08B510230092082200F05BF808BD08B50A230092032200F054F808BD08B5EF
:201920000A230092052200F04DF808BD08B50A2300921A4600F046F808BD01F00F0102A352
:20194000595C03681B681847303132333435363738394142434445460000000070B5164662
:201960000C46054607E02B68284632461B68641C9847401C04D021780029F4D1002070BD84
:201980004FF0FF3070BD000070B588B020246D4609E000BFB1FBF2F602FB1616B1FBF2F164
:2019A000641EE4B22E550029F4D1202C02D11F248DF81F10C4F12001CAB2291900F019F8F3
:2019C00008B070BDF0B589B01446DDF838506F46B1FBF3F603FB1616B1FBF3F1641E14F003
:2019E000FF043E55F4D12B46394600F002F809B0F0BD2DE9F0411E4614460D46074607E0C0
:201A000015F8011B32463846FFF797FF401C05D02046641EE4B2F3D2BDE8F0814FF0FF3023
:201A2000FAE78388021D3BB15B1E98B2108002EB4000B0F90200704702681268104710B5CD
:201A40000446011D162002F0D9FB08B100210180206841682046884710BD000010B58AB095
:201A60000DF11C0C33248CE80D00CDE9054105A86946EFF31084012282F31088034A904746
:201A800084F3108800980AB0C0B210BDF11FFF1F10B58AB0342306AC059384E8070005A8B8
:201AA0006946EFF31084012282F31088034A904784F3108800980AB0C0B210BDF11FFF1FDF
:201AC00030B50E4B002200BF02EB420453F8245085420CD803EB84046468844207D302EB7B
:201AE000420003EB8000007A0870002030BD521CD2B21E2AE8D3072030BD0000944A000050
:201B000010B58AB03222CDE90601059205A86946EFF31084012282F31088044A904784F380
:201B2000108800980AB0C0B210BD0000F11FFF1F08490948084A086000208880121D8A60B1
:201B4000054A8881083A0A618882121D8A618883704700002012001060043823EFF3108126
:201B6000012080F31088074B074A002042F82030401CC0B24028F9D30448026081F3108830
:201B80007047FEE7831B00000000001008ED00E000F1E02080F80014704710B5124B0022AE
:201BA00003EBC20494F90040844204D103EBC2004068017010BD521CD2B2062AF0D310BDC1
:201BC00010B5EFF31084012282F31088C906090E002802DAAFF23D0201E0AFF24B0290472A
:201BE00084F3108810BDEBE7004C0000EFF31082012383F31088044B03EB8000016482F3AE
:201C000010887047F2E7F1E70000001070B54FF08044207841070A4801D5417800E00021CA
:201C2000017001214170EFF3108581F3108800F009F8207820F00400207085F3108870BD73
:201C400000010010EFF31080012181F31088AA2289070A7255220A7280F310887047000046
:201C600070B5064629B10F48814204D94FF0FF3405E0FF2403E04FF47A7041434C1EEFF3C8
:201C80001085012080F31088FFF7DCFF4FF080404460002101610670FFF7D4FF85F310883D
:201CA00070BD00003789410070B50125AC0785F31088FFF7C7FFFF20606000202061032089
:201CC0002070FFF7BFFFEFF3108085F31088AA212172217280F31088FEE710B50446D0F886
:201CE000A80208B102F072FA204610BD10B502F065FB0246303040F2254402F5097320F80B
:201D0000044B02F51472E0E80232114A0F4940F8102C02F031FB00F5F47002F04FFB2C30C5
:201D200002F04CFBA0F509740021A06800F07AFC04F5147002F042FB0021C162054930302B
:201D400002F01AFBA0F52B7010BD0000354C00003C540000554C00002DE9FE4F82460D464F
:201D60004FF4F47002F036FA0DF10408CDF800804FF020084FF480798DF808804FF0080C48
:201D80000195ADF80A9080F800C00E2680F801C000F108038670044678226946436000F0B1
:201DA00021FACAF8A842BDE8FE8F10B50A4600F12C0400F51F714FF48073204600F06EFB7A
:201DC00010BD70B50E468CB0054600F51F741146FFF7EBFF01A900912021CA0003A88DF801
:201DE00008100190ADF80A206846214600F0F9FB3046214600F022F92046294600F000FCC9
:201E00002846694600F0EDFB0CB070BD70B5044600F51F750021FFF7C8FF04F52B7029460B
:201E200000F00CF92046294600F0DBFB70BDF8B500218DF800108DF8011080218DF80210B4
:201E4000D0F87C02694602681F2015E013780D784C78AB405C404C7000248D7831264B7895
:201E60002B4202D086EA430300E05B00641CE4B24B70082CF3D3521C401E80B2E6D29DF81C
:201E80000100F8BD2DE9F0410D4C4FF00056EFF31185F82080F31288206C20F0FF0020649B
:201EA000C4F89C60FEF7AAFA606DC4F89860C7B2FEF7A9FA85F311883846BDE8F08100009A
:201EC00000C0092070B5074E4FF00055EFF31184F82080F31288F563FEF7A2FAB56384F3F7
:201EE000118870BD00C0092070B50E4C4FF08056EFF31185F82181F31288216C41F0FF0142
:201F000021646FF0FF012165606500202065FEF78DFAC4F89C60FEF789FAC4F8986085F315
:201F2000118870BD00C00920EFF31081012080F310884207104840F8982F531040F8783967
:201F4000826192008261026842F020420260026E42F0405202660948026D45F255531A4331
:201F60000265426E42F020624266C26C42F00842C26481F31088704700C0092000C0024070
:201F80001A491B480A78CAB100220A70EFF31082012181F31088174951F8C43F43F480538A
:201FA0000B601549016015494B6843F480234B604B6C43F400234B6482F31088EFF3118120
:201FC000F82282F31288026842F08072026081F3118841680029FCDAC1F30B10800040F6AE
:201FE000FF71B0FBF1F00649085C7047111200100040034000C00F400418200000C0024078
:20200000304C0000F0B500244578436805FB024553F8255003230E6803EB8407FFB23668A8
:202020003E4437786F402D0A5B1E3770DBB2F2D2641C4378E4B29C42E6D3F0BD2DE9F041BC
:202040000F46064684786FF0010200F07BF92246641EE5B239463046FFF7D4FF002239463D
:20206000304600F06FF9274C39463046D4E9002300F069F900223946304600F063F9224A29
:202080003946304600F0F4F96A1C3946304600F059F92A4639463046FFF7B4FF0022394602
:2020A000304600F04FF9194A3946304600F00EF900223946304600F045F96D1E15F0FF054A
:2020C000D2D1114A3946304600F0D2F900223946304600F037F9D4E900233946304600F056
:2020E00032F901223946304600F02CF92A4639463046FFF787FF6A1E39463046BDE8F04154
:2021000000F020B9784C0000C64F0000B64E00002DE9F04101240F460646A21E00F012F951
:20212000002239463046FFF76DFF22463946304600F008F9284D294A3946304600F098F97A
:2021400000223946304600F0FDF8D5E900233946304600F0F8F800223946304600F0F2F8DC
:202160001F4A3946304600F0B1F800223946304600F0E8F8224639463046FFF743FF621C6E
:202180003946304600F0DEF8641CB078E4B28442D1D3124A3946304600F06AF90022394697
:2021A000304600F0CFF8D5E900233946304600F0CAF800223946304600F0C4F822463946C0
:2021C0003046FFF71FFF39463046BDE8F0416FF0010200F0B7B80000804C0000C64E000009
:2021E000A64E00002DE9F04105460024164620460F680023D7F800704FEA022C0246401C8F
:20220000BA5C5B1CDBB2C0B242EA0C02042BF3D16B6843F82420641C2A78E4B29442E7D16D
:202220006FF00307696807EB840008582978B4FBF1F201FB124212B108290CD013E04FEA0F
:20224000306000F01EF82978154AB4FBF1F1515C80EA016007E0B4FBF1F201FB12410429EA
:2022600001D100F00EF82A786968A21A51F82220424041F82420641CE4B2B442D2D1BDE889
:20228000F081084A0021C3B220F0FF00D35C491C0343C9B24FEA33600429F4D3704700000A
:2022A000884C0000C64E000050B149B1054A105C515C0844FF2800D9FF380349085C7047E9
:2022C00000207047A64C0000A64D00002DE9F74F82B0002493460F46A246E9460026002500
:2022E00009F806A00BEB8608386805EB8401C9B20068415C18F80500FFF7D6FF19F8062007
:202300006D1C5040EDB2494609F80600042DEBD3761CF6B2042EE2D300203A6800EB84032B
:20232000DBB212681A440B5C401CC0B213700428F3D30298641CE4B240788442CED305B00A
:20234000BDE8F08F70472DE9F0411F4614468846012600EB67052846F9070AD001680B593B
:20236000324641469847761CF6B2042EF3D3BDE8F0812346F4E72DE9F84F44788A46804644
:20238000164615466F46641EE3B21C4632465146404601F094FE6D1E15F0FF050178B94634
:2023A0007955F0D198F80150641EE3B21C4632465146404601F083FE6D1E0778EBB21D4623
:2023C00032465146404601F07AFE0770002CEBD134464F466D1EEBB21D4632465146404671
:2023E00001F06DFE641E14F0FF04395D0170F1D1BDE8F88F2DE9F84F16468A46814600248F
:202400006D46234632465146484601F058FE01782955641CE4B2A846B442F2D30024354667
:202420002B466D1CEDB232465146484601F047FE23460778641CE4B232465146484601F0A4
:202440003EFE077099F80100A842E9D8002547462346641CE4B232465146484601F02FFEA0
:20246000795D6D1CEDB20170B542F1D3BDE8F88F70B5002400230D6803EB8406F6B22D6870
:202480005B1C3544DBB22E78042B965D2E70F2D3641C4378E4B29C42ECD370BD10B50446EA
:2024A00052B10A46194600F00BF82068A16802682046BDE810401047A06800F0A1F8F4E75E
:2024C00070B514460D46064600F042F8224629463046BDE87040AFF3008070B50446106809
:2024E0000E461546C088B04213D91146E06800F078F82968E0680023C9880122891B491E8D
:2025000089B200F000F9D4E90201BDE8704000F077B81146A068F8E770B50C460546012141
:2025200000F08BF8002812D0286801790068491EC9B201440878604008702968087909686A
:20254000801EC0B20844017881EA1421017070BD70B50D460446C068002100F063F820688A
:20256000E168026820469047A188E068FFF7D4FFE0680168C988A94202D9A188FFF7CCFF7F
:20258000D4E90201BDE8704000F03AB810B5006801F007040123A34004680079DBB2A0EB17
:2025A000D100401EC0B2204401780AB1194300E09943017010BD30B5036809681A790879B7
:2025C00082420CD11B68096800201C5C0D5CAC4205D1401CC0B29042F7D3012030BD002009
:2025E00030BD10B502681279521ED2B20B6804681B6824689B5CA354521ED2B2F6D210BDDB
:2026000030B502681279521ED2B203680C681B6824681344A45C1D786C40521E1C70D2B2E6
:20262000F3D230BD002203681B6899540368521CD2B21B799A42F6D370472DE9F04103460E
:20264000006851B1C2888A420BD24FF000011846FFF7E8FF0020BDE8F08100680078C009C3
:20266000F9E70ED101680079A0F10100C0B2085C4FF0000100F001041846FFF7D3FF204690
:20268000E9E700251A6828461279521ED2B21C68246814442778FE097F063F0E277010B19E
:2026A00047F001002070521E3046D2B2EFD2491E0904090CE6D1CEE710B50968C4780B684D
:2026C0000979091B491EC9B2194404780B780AB1234300E023400B708178017010BD30B51B
:2026E00001F00705FF22AA40D2B2039C42700BB1FF2500E00025C9088570C170A34200D16B
:20270000D243027030BD2DE9FC410546012000901C4616460F4601A8FFF7E1FF224629468D
:2027200001A8FFF7C9FF9DF80700411E8DF80710F4D2324639462846FFF728FFBDE8FC8131
:202740007047000010B500F033FA001D10BD00BFFD1B0000704770477047000070B5064C83
:202760007C44064D7D4403E0206820448047241DAC42F9D170BD00004834000048340000D1
:2027800070B5044600F067FB783405462646204600F05BFA040007D13146E86900F0C8FA14
:2027A000040001D100F0F0FA0AA104F12000D1E90021C0E900210021A162E1626161216159
:2027C000A161E161A868E0606868A06004F1780070BD000041524D00432B2B000000000082
:2027E00070B500F038FB4469054614B9002000F0CBFAE06904F12006401CE061304600F090
:20280000B9FA002801D0266803E0286800F10100286002D04FF0000200E022684FF00001D4
:202820003046FDF757FE3046FDF72FFE304600F0C0FA00002DE9F14DD0E90C8581B0064607
:20284000D0F828A000F007FB0446A6F12007304600F07DF8304600F08DFA08B1606800E0C5
:20286000B868206100F0C4FABDE8FC8D00F06FF86669BE4202D100F045F80DE0306960616E
:2028800000F040F805E000F062F800F03BFA00F039F860693061666100273C4606F1200BAF
:2028A00011E02E686B4600223146584600F0EEF808B1FFF795FF3146104801F007FC00B11C
:2028C00001274544641C5445EBD38FB1684601F041FC0420FFF754FF694601F033FC0446CE
:2028E000684601F046FC064A0449204600F0B3F8584600F049FA00F005F8B5E7A45100000A
:202900007341000070B500F0A6FA446905460CB900F0F8F96069401E606117D104F12006C5
:20292000304600F027FA21696961E56928B104F17800266800F0D5F901E000202061002D2D
:2029400004D13046BDE8704000F090BC70BD70B50546466A00F07FFA0446284600F00AFA39
:2029600020B12946606900F052FA07E0A5F12000C169491EC1612168491E21604169491C42
:202980004161016911B9616901616061284600F03DFC304670BD70B5054600F05CFA04463A
:2029A000284600F0E7F938B12946A06900F02FFAC169491CC16102E0A5F12000C1690129C2
:2029C00002D1A1698161A061012070BD70B500F042FA846905460CB900F094F904F1200603
:2029E000304600F0C7F968B1E0692668012802D0401EE0610BE0A16904F17800A96100F0CB
:202A000070F904E0E069012801D1A069A861304670BD000073B50C4600F01DFA54F80C1C7B
:202A2000203C31B1E169491EE1610168491E01607CBD616804F1780509B12846884728465B
:202A4000BDE87C4000F04DB9FFF781FF284600F048F9FFF7C5FE70B50D46A0F158044C4957
:202A6000A160012140F85C1C40E91E5200F0F3F901682A46491C016000212046FDF72AFDCD
:202A80002046FDF702FD204600F093F92DE9FF4D9A4693460E46804600F06CF9002875D103
:202AA000A8F12000012708F1580805680024CDF808803146284601F009FB10B1CAF8008021
:202AC00062E0284601F09CFB0190304601F098FB00903049019801F0F9FA20B92D490098C6
:202AE00001F0F4FA20B1DDE9001001F0FFFA08BB2849019801F0EAFAC0B1307A297A00F016
:202B0000030001F00301641C31EA00023ED130EA010100D077B1C00700D100270298ED684F
:202B2000F6680028C5D000680290C2E7012C02D06CB109D02AE01849304601F0C7FA18B186
:202B4000BBF1000F22D1B9E7BBF1000F1ED11349019801F0BBFA20B91149019801F0B6FA75
:202B6000A0B100200090019033462A4603A902A801F05AFB002804D00399CAF800101CB107
:202B8000022004B0BDE8F08D0120FAE70020F8E7152A0000EC500000CC510000F85000005C
:202BA00004510000002300F081BB012300F07EBB004870476012001000487047741200100E
:202BC0000B3020F0070070472DE9F04117460E460446FFF7F5FFA042054633D9002F1CBF7D
:202BE00006F10C00FDF724FD30467468F4B12168A94217D305F1080291423CBF6168416030
:202C000007D3626861194A602268521B0A6041602560002F1CBF06F10C00FDF716FD201D14
:202C2000BDE8F08120466468002CE0D12946304600F030FE0028D7D1002F1CBF06F10C008F
:202C4000FDF703FD0020BDE8F08110B5044600F015FE01682046BDE810400122B4E770B591
:202C600016460D46041F002808BF70BD002E1CBF05F10C00FDF7DCFC2B465868002818BF5F
:202C8000A04238BF0346F8D31968CA18A24218BF5C6003D122681C461144196021680A1933
:202CA000824218BF606004D142686260006808442060002E1CBF05F10C00FDF7C6FC70BD56
:202CC00010B5044600F0DAFD01682046BDE810400122C4E710B500F061FEBDE8104000F093
:202CE00058BE10B5044600F0B6F8783CC069214600F029F8002804D12046BDE81040FFF76E
:202D0000DFBF10BD10B500F0A6F8016919B100220261884701E08068804700F007FE10B523
:202D20008820FFF792FF002801D00021017010BD802902D808B1017809B1002070470121A4
:202D400000F8081B704718B100F10802914201D000207047002101707047000002680B683C
:202D60009A4205D140684968884201D1012070470020704710B50349FFF7F0FF80F0010096
:202D800010BD0000C850000070B5054600F063F804461DB12846FFF7EDFF08B1A06801E089
:202DA00055F8140C206101202073BDE87040FFF7A9BF040001D0FFF7CAFD2046FFF7E4FFED
:202DC00038B5684601F0AAF90420FFF7D9FC694601F09CF90446684601F0AFF9024A034977
:202DE0002046FFF738FE00003B4100009851000010B500F030F8016919B100220261884777
:202E000001E04068804700F091FDFFF77BBF70B504000D4609D004F12000FFF79FFF20B1E5
:202E20002068A84201D1204670BD0020FFF7A8FCD5E90023A0F15801C1E90023002240F80F
:202E40005C2C40F8642C40F8682C40F8785D70BD10B500F06BFD70B500F014FD0468054622
:202E6000A4B92020FFF7F1FE040011D0094900202C60C4E900010849A16020732061606118
:202E80000649A06109B1FFF74AFFE061204670BD00F04CFD0B2E0000512E00000000000024
:202EA00010B5029C31B101290DD003290BD004290BD108E04BB90F2A07D800EB82002168BC
:202EC0004160002010BD012010BD022010BD10B5029C31B101290DD003290BD004290BD12B
:202EE00008E04BB90F2A07D800EB820040682060002010BD012010BD022010BD2DE9F04D1C
:202F0000C0B09846044631B1012918D0032979D0042979D176E0B8F1000F75D190B2231D63
:202F200000F40052A16B05E0C50701D020C91D6040081B1D0028F7D1F2BBA1635EE0150CD7
:202F400096B2102D01D2012000E000208246A819102801D9012700E00027B8F1010F03D0A2
:202F6000B8F1050F50D101E03FBB01E020284BD84FF0000BBAF1000F08D02078012805D1D9
:202F800084F800B004F1480080EC200B47B16078012805D184F801B004F1C800C0EC200BA1
:202FA000BAF1000F02D0684680EC200B20A883460FB1C0EC200B01E020E025E06B46A06B76
:202FC00008E0014603EBC502D1E900C1C2E900C108306D1C761EF4D24146B8F1010F00D0FB
:202FE000002100EB8100A063BAF1000F02D0184690EC200B17B15846D0EC200B002040B053
:20300000BDE8F08D0120FAE70220F8E710B50468904801F10802436803444FF0FF30934251
:2030200004D0136843F31E03134400E003460A6842F31E021144A14202D89C4201D30120BE
:2030400010BD002010BD33B50446824881B0824D0168426801441044401AC210029808231D
:20306000801E029002A8009500F06BFC7B49002370B1026842F31E020244A2644268012AA2
:2030800009D0002A0ADA001DE064012020650BE00422636115E00222636112E042F31E0249
:2030A000001D1044C4E91303E26C1068002815DAC0F3036050B101280AD002280CD00122BC
:2030C00063612046FDF706FA09203EBD644800E06448606100203EBD6348FAE740F31E00BD
:2030E0001044F6E70C4605462846216CFFF7ABFF50B9206C28616B6922462946012098479E
:20310000072803D00828EFD000F010FC201DFDF7AFF9F0B50446C068D3B00E46012768B3B8
:203120005820FFF792FD05002AD0142204F10C0105F10C0000F04AFC182204F1200105F1DD
:20314000200000F043FC04F1380005F1380C0FC88CE80F00E560F06B30644022311D01A8D2
:2031600000F034FC8DF800708DF8017012AF32AD20461099FFF767FFD0B910E0E760EAE7A8
:20318000052236492046FDF7A5F905E09DF8010010B92846D0EC200B53B00920F0BD636953
:2031A0006A46214600209847062809D00828DFD09DF800000028E9D1384690EC200BE5E7AB
:2031C0009DF8000010B9384690EC200B9DF8010010B92846D0EC200B31462046FFF782FF64
:2031E0000546006908640C460A466B69294602209847072803D0082804D000F097FB201D04
:20320000FDF736F921462846FFF76CFF70B5C1680546D1B101291AD00C46142205F10C009C
:203220000C3100F0D3FB182204F1200105F1200000F0CCFB04F1380038350FC885E80F0089
:203240002046BDE87040FFF73BBD00F06FFB0020E86070BDB00400000D300000010000FFE5
:20326000A52B0000AB2B0000000000008268002A02D001460120104770470000017A51B9C7
:20328000417A89B1491E417241680A1D42600968016004210172C9B2491E017201680A0E6D
:2032A0000902016010467047B02070472DE9FF4D8CB05FEA000B4FF0000016460D46079097
:2032C0000990059008900DD0BBF1010F0AD0BBF1020F01D0002204E2A86BA864E86B049019
:2032E0002C6C0FE095F85000C007E86C049078D10F9818B104980068C0F30740049901EB7B
:20330000800442E00F98022811D02788002F68D06088241D00F00102394662F35F0161B1DD
:20332000012934D002297DD00329EBD12FE12768002FECD060680834ECE7BBF1000F24D0EF
:20334000A96C002301EB000806A9009130460F221946FFF7BCFD0698804516D808EB070100
:20336000814212D9A96CA963201D0499C5E90F102846FFF710FB0028ACD020680F2240F3D8
:203380001E0004443046049423E0241DBAE7BBF1000F27D006A90023009130460D221946BB
:2033A000FFF795FD0698296A88426ED1E86AA0426BD1206804A940F31E0004440023009159
:2033C00030460F2204941946FFF76AFD30460022049504A9002300911946FFF761FD224645
:2033E0003DE2D6E0A96C002301EB00080AA9009130460F221946FFF76AFD0A987F1E804521
:2034000043D808EB070181423FD96768B81C0ED0781C0ED0206806ABC20F39462846FFF7DB
:2034200035FB00E033E078B302281DD004E0022257E105F15800069004A90023009130462C
:203440000D221946FFF743FD0498EC622862069868622068022140F31E0002192846FDF753
:2034600039F83A4680215FE004A90023009130460D221946FFF72BFD0498EC622862069826
:20348000A86205F12800E3E7FFE708343AE72168069121F00048BBF1000F10D00AA900230D
:2034A000009130460D221946FFF711FD0A98296A884240D1E86AA0423DD101203CE0A96CCF
:2034C000401E01EB000A0AA90023009130460F221946FFF7FCFC0A9882453AD80AEB0701C5
:2034E000814236D904F1040A00270AE06B4600222846DAF80010FFF7C9FA20B90AF1040A28
:203500007F1C4745F2D3474523D104A90023009130460D221946FFF7DAFC0498EC6228629A
:203520000020D34A022168622846FCF7D3FF062010B0BDE8F08D002058B10020C5E90A80A5
:2035400004202863201D68630698404506D1012007900698404515D1002014E004EB88006E
:20356000002250F8041F134641F31E010C1804A90091304604951146FFF792FC30460F221F
:20358000049465E1042000EB88000444FDE60122A7E00498006801900498001D02900F985A
:2035A00010B30198000C8DF80D0001980004019002208DF80C0001A8FFF760FE0446B02811
:2035C0001AD03F2C41D800F03F01042000EB810706A90D2400230091304622461946FFF7EF
:2035E00076FC0698384442E000208DF80D000198000201900320DCE70998B0B9059800288A
:20360000C5D004A8002300900E2219463046FFF75EFC0499059105A90023009130460F2225
:203620001946FFF73DFC012008900798002870D0002204A900913046134604951146FFF727
:203640002FFC0898002878D0FEE07F2C19D800F03F01042000EB810706A90D24002300915A
:20366000304622461946FFF732FC0698C01B049004A800230090224619463046FFF710FC3E
:2036800099E78F2C1AD80007040C01A8FFF7F6FD54EA00143FF4CBAE0023224619463046F6
:2036A000FFF72CFC08B103221BE0200401D5012009906004E4D5012005907CE79F2C16D870
:2036C00000F00F020D2A0BD00F2A09D006A9002300910D2430461946FFF7F9FB0698C6E727
:2036E000042201212846FCF7F5FE092020E7AF2C10D804F007000121401C81400A01103AAC
:20370000200703D5012042F4804205900023194658E0AAE0B72C35D8B12C0FD0B22C15D049
:20372000B328DDD101A8FFF7A9FD00F00F0100F0F000491C41EA00322BE073E001A8FFF71C
:203740009DFD0200CCD00F2AE0D9C9E700273C4601A8FFF793FD00F07F01A1400F4300060E
:2037600001D5E41DF4E706A90D2400230091304622461946FFF7ABFB069800EB870000F525
:20378000017074E7BF2C07D800F00700401C40F400220123012115E0C72C25D809D101A83C
:2037A000FFF76CFD02009BD00F2A99D80023042108E0C62C0DD000F00700401C40F42022CB
:2037C000032319463046FFF799FB00283FF458AF69E701A8FFF752FD00F00F0100F0F000E4
:2037E000491C41EA0032EBE7C82C0BD0C92C09D0CF2CAAD9D72CA8D800F00700401C40F410
:2038000000220DE001A8FFF739FD00F00F01491C00F0F00041EA0032C82C01D102F58012D3
:203820000523B7E704A8002300900F2219463046FFF74DFB0499059105A900230091304614
:203840000E221946FFF72CFB094930460F22049104A9002300911946FFF722FB044A0321E9
:203860002846FCF737FE072062E6082060E600003528000000487047401200100048704718
:2038800048120010004870477C120010704770477047704738B504460A4600206946AFF34D
:2038A0000080002808BF38BD02460099204600F024F9012038BD012000F067B9F8B5AFF3BA
:2038C0000080054600200C46102000BF0646A819A0420DD9324669460020AFF30080070077
:2038E00008BF00F052F90098A04218BF0546C419FFF7C4FF05600746F01D20F0070046195F
:20390000284600F00AF8B44208BFF8BDA21B31463868BDE8F84000F0F0B800210160C0E961
:2039200001100C30FCF780BE1020704710B5002000F024F9FCF74DFDBDE810400120FCF7EA
:20394000FFBD2DE9F047984614460F468246DDF8209094B1012C0BD04A465046650805FBA4
:2039600008763146904700280CD00DDA2C46F0E74A4639465046904710B10020BDE8F087CE
:203980003846FBE73046F9E7641B641E06EB0807DFE7002801D0FCF7D3BD704710B5002191
:2039A00002A000F0D2F8012010BD00005349475056464E3A205075726520766972747561EF
:2039C0006C20666E2063616C6C65640010B5203AC0F00B80B1E81850203AA0E81850B1E8C4
:2039E0001850A0E81850BFF4F5AF5FEA027C24BFB1E81850A0E8185044BF18C918C0BDE81C
:203A000010405FEA827C24BF51F8043B40F8043B08BF7047D20728BF31F8023B48BF11F879
:203A2000012B28BF20F8023B48BF00F8012B70474FF0013C50F8042B51F8043B9A4221D1F3
:203A4000A2EB0C03934313EACC1317D150F8042B51F8043B9A4215D1A2EB0C03934313EA00
:203A6000CC130BD150F8042B51F8043B9A4209D1A2EB0C03934313EACC13DBD04FF000009E
:203A8000704700BFD01A01BAB1FA81F101F0180122FA01F0CB40C1F12001DBB2C0B2C01A20
:203AA0002CFA01F3D11A914311EAC311E6D170477546FFF7DFFEAE4605006946534620F011
:203AC0000700854618B020B5FCF722FDBDE820404FF000064FF000074FF000084FF0000B44
:203AE00021F00701AC46ACE8C009ACE8C009ACE8C009ACE8C0098D46704730B404468C46BD
:203B00004368002B18BF634538BF1846F8D303681844604507D0C81C20F0070000F1040CF1
:203B2000ACEB0100121A2146CCF8002030BC00220CF10400FFF793B810B50446AFF30080F5
:203B40002046BDE81040FCF74FBC70B505460C460A2000E06D1CFCF7F2FC35B12878002828
:203B6000F8D102E0641CFCF7EAFC14B120780028F8D1BDE870400A20FCF7E1BC10B500F02F
:203B80000BF8BDE81040FFF704BF10B500F01CF8BDE81040FFF7FDBE10B5002102A0FFF787
:203BA000D4FF012010BD0000534947414252543A2041626E6F726D616C207465726D696E03
:203BC0006174696F6E00000010B5012805D0002103A0FFF7BAFF012010BD09A1F8E700001D
:203BE00053494752544D454D3A204F7574206F662068656170206D656D6F7279000000005F
:203C00003A2048656170206D656D6F727920636F727275707465640004F12000FDF701F918
:203C2000FCF70AFCFEF76EFEFCF706FCFEF76AFE684600F03BF8FCF7FFFB384600F0C6FAEC
:203C400015B1304600F0C2FA01A800F01DFAFCF7F3FBFEF757FEFCF7EFFBFCF7EDFB204683
:203C600000F0B4FAFCF7E8FBFEF74CFEFEF74AFEFCF7E2FBFEF746FEFCF7DEFB38B56846E4
:203C800000F084FA0420FEF77BFD694600F076FA0446684600F089FA024A03492046FEF7B8
:203CA000DAFE0000AB410000B051000010B5FEF714F810BD2DE9F041054614460E465069B3
:203CC00000F004FA012718B1E7602562BDE8F081206A0028FAD0E069A842F7D13046A1692A
:203CE00000F0F4F90028F1D0606A18B1002027616062EBE7206A6062E8E710B5144650693C
:203D000000F0E4F9002802D000202062E06010BD2DE9F0411468984616460D460746A047A9
:203D2000284600F06DFA214900F0D0F930B1002332463846A968FFF7EBFF2AE0284600F048
:203D40005FFA1B4900F0C2F918B305F110041AE0F06810B12079800714D544B1207910F07C
:203D6000010F04D02146384600F084F802E0606807EB2020234632462168FFF7C9FF306971
:203D8000002811D10834E96805EBC1001030A042DED87468002C07D0434632462946384636
:203DA000A446BDE8F0416047BDE8F081F8500000045100002DE9FF4D82B0824614468B4662
:203DC0004FF0000810460E9D00F01AFA274900F07DF978B1DA4504D1A068059900F076F99F
:203DE00040BB0095A26859465046059BFFF7E2FF804636E0204600F003FA1D4900F066F999
:203E000078B32646103426E06068C10705D02146504600F02FF8074601E00AEB20275F453A
:203E20000BD12068059900F051F930B12079A046800716D50120286013E02079800709D5DA
:203E40000095226859463846059BFFF7B3FF8046286830B90834F06806EBC0001030A04238
:203E6000D2D806B04046BDE8F08D0000F8500000045100000268496802EB21210968084496
:203E8000704700002DE9FF4D8CB01446DDE91C688B4600271046199D00F0B2F9704900F0E1
:203EA00015F998B3A0680F9900F010F9C8B1DBF8000010B10C99884204D13078022801D00C
:203EC000286828B1012028600020CBF80000C3E0012030701A98C8F800000C98CBF80000B0
:203EE00012E0DDE91A1202A880E846011898CDE90005A26859460F9B0C98FFF7C3FF002843
:203F000003D02868002800D10127A5E0FFE7204600F076F9534900F0D9F8002869D018987F
:203F20000B9440F3400008901898103440F30000099089E0606800F001010A910C9969B19A
:203F40000A9969B121460C98FFF794FF82461A9850B12079800707D5012006E00020F5E796
:203F60000C9901EB2020F1E70020009020680F9900F0ACF820B3DBF8000008B1504507D158
:203F80006068C10702D03178012901D0296829B1012028600020CBF8000029E0C00701D083
:203FA000022000E0012030700098C8F80000CBF800A03DE0089800E00998401C4CD142E0AA
:203FC000009900208DF81C0007AACDE90428069006AB1898CDE90213CDE90005226859464E
:203FE00050460F9BFFF74EFF0028286802D020B1002731E00028FBD125E0069820B92079A2
:20400000C00701D020680690307858B19DF81C10022901D1022805D01B98006880B1069991
:2040200088420DD19DF81C0030701B9806990160D8F80000012730B10A980028BCD0B9E705
:2040400001202860D4E708340B98C16800EBC1001030A0423FF66EAF10B03846BDE8F08D74
:20406000F850000004510000002202810249016010314160704700004854000002685268F9
:20408000104703681B68184710B52030FCF7C9FE203810BD10B5EFF31084012282F310881D
:2040A0004170FDF701FE84F3108810BDEFF31081012282F31088007881F310887047086832
:2040C00002EB8301C9B200680844704770B50C46A04207D0406800BF05462046406800BFDA
:2040E000854201D1012070BD002070BD70B50C46A04209D0406800BF05462046406800BFDB
:20410000854201D0012070BD002070BD10B500F051F80149016010BDE054000010B500F00D
:204120004FF80149016010BDE054000010B500F004F8BDE8104000F049B810B5AFF300800E
:2041400010BD000010B500F035F80149016010BDF454000010B500F033F80149016010BD98
:20416000F454000010B500F004F8BDE8104000F02DB810B5AFF3008010BD000010B500F013
:2041800019F80149016010BD0855000010B500F017F80149016010BD0855000010B500F0EB
:2041A00004F8BDE8104000F011B810B5AFF3008010BD000001490160704700001C550000CE
:2041C00001490160704700001C55000010B5FEF777FD10BD10B5040007D1012405E0FEF771
:2041E000EBFC006800B9044880472046FEF72DFD0028F4D010BD00007D3C000008467047A8
:2042000010B530B1006820B14038C46B2CB1204610BDFEF7D5FD002010BDFEF7D1FDF6E7B4
:204220000020FEF757BD00002DE9F04D00248AB00126CDE908649B4617468A46254600B131
:204240000068CAF8005080461046FFF7D9FF1149FFF73CFF08B1B86800E0032008A907AA31
:20426000CDE904218DF81C5006AB069509A9CDE90263CDE900015B463A4651464046FFF76E
:2042800001FE10B1089800B101240AB02046BDE8F08D0000045100002DE9F0450E46016849
:2042A0008BB0824651F8081C150001EB00040A9400684FF0000850F8047C18D02148009093
:2042C0002148CDF80C80CDF8108001900DF1140CCDF80880CDF82080CDF824808CE860042D
:2042E000394600236A462046FFF712FD099C24BB01200290B7420BD002A8009033463A46C3
:204300005146CDF808800A98FFF754FD0298A0B129463846FFF7DAFE08B10A9C0DE0CDF819
:204320000C80CDF800802B463A4603A90AA8CDF80480FFF779FF00B1039C0BB02046BDE890
:20434000F0850000B53C0000FB3C000010B500290AD00878002807D005487844FFF768FB17
:20436000002801D0002010BD0248784410BD0000421700003A1700002DE9FE430DF1040879
:20438000CDF800804FF020084FF4807901918DF808804FF0080CADF80A9080F800C00E2698
:2043A00080F801C000F1080386700446782269464360FDF717FF2046BDE8FE8310B5011D23
:2043C00000F10C02C0E900122023DC000372448110BD10B51030FDF79BFE10BDB0B0A88016
:2043E00002001700010000003851000000000000B0B0AE802A00390001000000385100009F
:2044000000000000B0A900803E000900010000003851000000000000B0B0A88002000D005B
:20442000010000003851000000000000B0B0A88028000700010000003851000000000000B1
:20444000B0B0A88002001E00D1F7FF7F00000000B0AA01800D0016005BCAFF7F88510000F4
:204460000D0016005BCAFF7F905100003A001700010000009051000000000000B0AC018085
:204480004B002800CBCAFF7F705100000600720095F7FF7F00000000D0B20181B0B0A90145
:2044A000C500440019CDFF7F44510000C500440017CDFF7F90510000C500440053CDFF7F07
:2044C0001C510000C500440051CDFF7FFFFFFFFF0400080159F7FF7F2E000C0155F7FF7FEE
:2044E00000000000B0AB0A800600240055F7FF7F08002A0047F7FF7F240032004DF7FF7FDD
:204500000C0056003DF7FF7F120162003DF7FF7F00000000B0B0AC80020049000100000088
:204520001C51000000000000B0B0AC8010005300010000001C51000000000000B0B0AA8027
:2045400010006700010000001C51000000000000B0B0A88022001100010000001C5100004D
:2045600000000000B0A902801F001A00ADD2FF7F2451000010003800DBF6FF7F2E001B00D5
:20458000010000001C51000000000000B0B0A88002001A00C7F6FF7F00000000B0B0A88046
:2045A000540007000000000000000000B0AF028002004A00ABF6FF7F3C0011000100000006
:2045C0002451000000000000B0B0A880020017000000000000000000B0AA0B801A002F0097
:2045E0000000000000000000B0B0AA800A0019000000000000000000B0B0A880020017006D
:2046000001000000B051000000000000DF8401800B00500073E2FF7FFFFFFFFF2100260043
:204620004DE2FF7FFFFFFFFF0A00460041F6FF7F04005A0035F6FF7F68005E0031F6FF7F5A
:2046400000000000B0AA018019002A00FDE3FF7FFFFFFFFF020042001DF6FF7F000000000D
:2046600065170000000000002D5C7C2F00000000963007772C610EEEBA51099919C46D07BF
:204680008FF46A7035A563E9A395649E3288DB0EA4B8DC791EE9D5E088D9D2972B4CB6094D
:2046A000BD7CB17E072DB8E7911DBF906410B71DF220B06A4871B9F3DE41BE847DD4DA1A43
:2046C000EBE4DD6D51B5D4F4C785D38356986C13C0A86B647AF962FDECC9658A4F5C011477
:2046E000D96C0663633D0FFAF50D088DC8206E3B5E10694CE44160D5727167A2D1E4033CDE
:2047000047D4044BFD850DD26BB50AA5FAA8B5356C98B242D6C9BBDB40F9BCACE36CD8324C
:20472000755CDF45CF0DD6DC593DD1ABAC30D9263A00DE518051D7C81661D0BFB5F4B421AC
:2047400023C4B3569995BACF0FA5BDB89EB802280888055FB2D90CC624E90BB1877C6F2F4E
:20476000114C6858AB1D61C13D2D66B69041DC760671DB01BC20D2982A10D5EF8985B171C2
:204780001FB5B606A5E4BF9F33D4B8E8A2C9077834F9000F8EA8099618980EE1BB0D6A7FB0
:2047A0002D3D6D08976C6491015C63E6F4516B6B62616C1CD83065854E0062F2ED95066C8E
:2047C0007BA5011BC1F4088257C40FF5C6D9B06550E9B712EAB8BE8B7C88B9FCDF1DDD62AA
:2047E000492DDA15F37CD38C654CD4FB5861B24DCE51B53A7400BCA3E230BBD441A5DF4ABD
:20480000D795D83D6DC4D1A4FBF4D6D36AE96943FCD96E34468867ADD0B860DA732D0444D7
:20482000E51D03335F4C0AAAC97C0DDD3C710550AA41022710100BBE86200CC925B568579F
:20484000B3856F2009D466B99FE461CE0EF9DE5E98C9D9292298D0B0B4A8D7C7173DB359A9
:20486000810DB42E3B5CBDB7AD6CBAC02083B8EDB6B3BF9A0CE2B6039AD2B1743947D5EAA9
:20488000AF77D29D1526DB048316DC73120B63E3843B64943E6A6D0DA85A6A7A0BCF0EE493
:2048A0009DFF099327AE000AB19E077D44930FF0D2A3088768F2011EFEC206695D5762F77F
:2048C000CB67658071366C19E7066B6E761BD4FEE02BD3895A7ADA10CC4ADD676FDFB9F9ED
:2048E000F9EFBE8E43BEB717D58EB060E8A3D6D67E93D1A1C4C2D83852F2DF4FF167BBD19C
:204900006757BCA6DD06B53F4B36B248DA2B0DD84C1B0AAFF64A0336607A0441C3EF60DF92
:2049200055DF67A8EF8E6E3179BE69468CB361CB1A8366BCA0D26F2536E2685295770CCC4C
:2049400003470BBBB91602222F260555BE3BBAC5280BBDB2925AB42B046AB35CA7FFD7C204
:2049600031CFD0B58B9ED92C1DAEDE5BB0C2649B26F263EC9CA36A750A936D02A906099C2A
:204980003F360EEB8567077213570005824ABF95147AB8E2AE2BB17B381BB60C9B8ED292E6
:2049A0000DBED5E5B7EFDC7C21DFDB0BD4D2D38642E2D4F1F8B3DD686E83DA1FCD16BE81AA
:2049C0005B26B9F6E177B06F7747B718E65A0888706A0FFFCA3B06665C0B0111FF9E658F70
:2049E00069AE62F8D3FF6B6145CF6C1678E20AA0EED20DD75483044EC2B30339612667A7FB
:204A0000F71660D04D476949DB776E3E4A6AD1AEDC5AD6D9660BDF40F03BD83753AEBCA9CD
:204A2000C59EBBDE7FCFB247E9FFB5301CF2BDBD8AC2BACA3093B353A6A3B4240536D0BA5F
:204A40009306D7CD2957DE54BF67D9232E7A66B3B84A61C4021B685D942B6F2A37BE0BB46F
:204A6000A18E0CC31BDF055A8DEF022D8117000000000000A515000000000000F1170000DA
:204A800000000000ED170000000000008D1600000000000000000000FF0F00000000000061
:204AA00000100000FF1F00000100000000200000FF2F00000200000000300000FF3F000009
:204AC0000300000000400000FF4F00000400000000500000FF5F000005000000006000002E
:204AE000FF6F00000600000000700000FF7F00000700000000800000FF8F00000800000037
:204B000000900000FF9F00000900000000A00000FFAF00000A00000000B00000FFBF000098
:204B20000B00000000C00000FFCF00000C00000000D00000FFDF00000D00000000E0000035
:204B4000FFEF00000E00000000F00000FFFF00000F00000000000100FF7F010010000000CC
:204B600000800100FFFF01001100000000000200FF7F02001200000000800200FFFF02008E
:204B80001300000000000300FF7F03001400000000800300FFFF03001500000000000400CD
:204BA000FF7F04001600000000800400FFFF04001700000000000500FF7F05001800000020
:204BC00000800500FFFF05001900000000000600FF7F06001A00000000800600FFFF060006
:204BE0001B00000000000700FF7F07001C00000000800700FFFF07001D0000000010000039
:204C0000FB0000001FED00E0FE00000022ED00E0FF00000023ED00E0F500000019ED00E0F6
:204C2000F400000018ED00E0F60000001AED00E04142434445466400BBB910605A3870C51A
:204C4000528954972010BF9FCD202454C7428DB304AB4070FDE76CC904740CE522265CE1EC
:204C6000A1A5A5705226323E1E2C4CDFAFE962B13A3697648100000077230000000000004B
:204C8000F5230000000000000001020408102040801B366CD8AB4D9A2F5EBC63C697356A2E
:204CA000D4B37DFAEFC500FF190132021AC64BC71B6833EEDF036404E00E348D81EF4C7139
:204CC00008C8F8691CC17DC21DB5F9B9276A4DE4A6729AC90978652F8A05210FE12412F0EB
:204CE00082453593DA8E968FDBBD36D0CE94135CD2F14046833866DDFD30BF068B62B3252B
:204D0000E298228891107E6E48C3A3B61E423A6B2854FA853DBA2B790A159B9F5ECA4ED440
:204D2000ACE5F373A757AF58A850F4EAD6744FAEE9D5E7E6ADE82CD7757AEB160BF559CB23
:204D40005FB09CA951A07F0CF66F17C449ECD8431F2DA4767BB7CCBB3E5AFB60B1863B521D
:204D6000A16CAA55299D97B2879061BEDCFCBC95CFCD373F5BD15339843C41A26D47142A5A
:204D80009E5D56F2D3AB441192D923202E89B47CB8267799E3A5674AEDDEC531FE180D63FA
:204DA0008C80C0F770070103050F113355FF1A2E7296A1F813355FE13848D87395A4F7029B
:204DC000060A1E2266AAE5345CE43759EB266ABED97090ABE63153F5040C143C44CC4FD1DE
:204DE00068B8D36EB2CD4CD467A9E03B4DD762A6F10818287888839EB9D06BBDDC7F8198DD
:204E0000B3CE49DB769AB5C457F9103050F00B1D2769BBD661A3FE192B7D8792ADEC2F7136
:204E200093AEE92060A0FB163A4ED26DB7C25DE73256FA153F41C35EE23D47C940C05BEDE4
:204E40002C749CBFDA759FBAD564ACEF2A7E829DBCDF7A8E89809BB6C158E82365AFEA25D0
:204E60006FB1C843C554FC1F2163A5F407091B2D7799B0CB46CA45CF4ADE798B8691A8E3E1
:204E80003E42C651F30E12365AEE297B8D8C8F8A8594A7F20D17394BDD7C8497A2FD1C2467
:204EA0006CB4C752F601020301010102030101010203030101020E0B0D09090E0B0D0D0932
:204EC0000E0B0B0D090E637C777BF26B6FC53001672BFED7AB76CA82C97DFA5947F0ADD4D2
:204EE000A2AF9CA472C0B7FD9326363FF7CC34A5E5F171D8311504C723C31896059A0712F5
:204F000080E2EB27B27509832C1A1B6E5AA0523BD6B329E32F8453D100ED20FCB15B6ACB5E
:204F2000BE394A4C58CFD0EFAAFB434D338545F9027F503C9FA851A3408F929D38F5BCB6EE
:204F4000DA2110FFF3D2CD0C13EC5F974417C4A77E3D645D197360814FDC222A908846EE42
:204F6000B814DE5E0BDBE0323A0A4906245CC2D3AC629195E479E7C8376D8DD54EA96C568A
:204F8000F4EA657AAE08BA78252E1CA6B4C6E8DD741F4BBD8B8A703EB5664803F60E6135BA
:204FA00057B986C11D9EE1F8981169D98E949B1E87E9CE5528DF8CA1890DBFE642684199BA
:204FC0002D0FB054BB1652096AD53036A538BF40A39E81F3D7FB7CE339829B2FFF87348E31
:204FE0004344C4DEE9CB547B9432A6C2233DEE4C950B42FAC34E082EA16628D924B2765B6B
:20500000A2496D8BD12572F8F66486689816D4A45CCC5D65B6926C704850FDEDB9DA5E1549
:205020004657A78D9D8490D8AB008CBCD30AF7E45805B8B34506D02C1E8FCA3F0F02C1AF25
:20504000BD0301138A6B3A9111414F67DCEA97F2CFCEF0B4E67396AC7422E7AD3585E2F9CA
:2050600037E81C75DF6E47F11A711D29C5896FB7620EAA18BE1BFC563E4BC6D279209ADB2A
:20508000C0FE78CD5AF41FDDA8338807C731B11210592780EC5F60517FA919B54A0D2DE533
:2050A0007A9F93C99CEFA0E03B4DAE2AF5B0C8EBBB3C83539961172B047EBA77D626E169B6
:2050C000146355210C7D000041524D00432B2B00000000001C540000D4510000C451000037
:2050E0001C540000F6510000C45100001C54000018520000E05000001C5400003C520000DC
:20510000D45000001C54000061520000D45000001C54000087520000C45100000C54000066
:20512000AF5200001C540000C9520000305100000C540000EE5200001C540000FD52000003
:20514000445100000C540000135300001C54000022530000905100001C5400003853000033
:20516000905100001C54000050530000905100001C54000068530000905100001C540000DE
:2051800081530000905100000C5400009A5300000C540000A85300001C540000B853000037
:2051A000BC5100001C540000C7530000BC5100001C540000D9530000BC5100000C54000042
:2051C000E65300000C540000F35300002C540000005400004E31305F5F63787861626976BA
:2051E0003131375F5F636C6173735F747970655F696E666F45004E31305F5F63787861624E
:2052000069763131375F5F70626173655F747970655F696E666F45004E31305F5F6378781C
:20522000616269763131395F5F706F696E7465725F747970655F696E666F45004E31305FF3
:205240005F637878616269763132305F5F73695F636C6173735F747970655F696E666F45E7
:20526000004E31305F5F637878616269763132315F5F766D695F636C6173735F7479706598
:205280005F696E666F45004E31305F5F637878616269763132335F5F66756E64616D656EBA
:2052A00074616C5F747970655F696E666F45004E3135426C6F636B5F446563727970746FF4
:2052C00072354572726F7245004E35426C6F636B32364572726F725F4372656174655F4B9B
:2052E00065795F575F53657373696F6E45004E35426C6F636B354572726F7245004E3546D7
:205300006C61736831314572726F725F466C61736845004E35466C617368354572726F7237
:2053200045004E36586D6F64656D31304572726F725F53796E6345004E36586D6F64656DA0
:2053400031324572726F725F43616E63656C45004E36586D6F64656D31324572726F725F3C
:2053600043686B73756D45004E36586D6F64656D31334572726F725F4672616D696E6745B9
:20538000004E36586D6F64656D31334572726F725F54696D656F757445004E36586D6F640A
:2053A000656D33456F7445004E36586D6F64656D354572726F724500537431306261645F5B
:2053C00074797065696400537431336261645F657863657074696F6E005374396261645F38
:2053E000616C6C6F6300537439657863657074696F6E00537439747970655F696E666F0006
:205400007600000000000000D4500000000000000000000000000000F850000000000000AA
:2054200000000000000000001051000000000000000000000000000000000000D3430000F5
:2054400000000000000000002142000021420000FCFFFFFF000000002142000021420000C7
:2054600000000000000000003D0D0000990D0000C90C0000210D0000FCFFFFFF0000000040
:20548000130D0000330D00000000000000000000A50A0000E10A00004D0A0000850A00002C
:2054A000FCFFFFFF000000007B0A00009B0A00000000000000000000110C00006D0C000033
:2054C0009D0B0000F10B0000FCFFFFFF00000000E50B0000070C0000000000009851000043
:2054E0003B4100002D4100000000000000000000A451000073410000654100000000000073
:2055000000000000B0510000AB4100009D4100000000000000000000BC51000000000000B3
:2055200000000000000000000D0A426F6F746C6F61646572203A20457865637574696E6723
:20554000206170706C69636174696F6E207769746820636F6E6669672064656661756C7420
:20556000732E2E2E0D0A0A0A000000000D0A2A2D2D2D2D2D2D2D2D2D2D2D2D2D2D2D2D2DC5
:205580002D2D2D2D2D2D2D2D2D2D2D2D2D2D2D2D2D2D2D2D2D2D2D2D2D2D2D2D2D2D2D2D6B
:2055A0002D2D2D2D2D2D2D2D2D2D2D2D2D2D2D2D2D2D2D2D2D2D2D2D2D2D2D2D2D2D2D2D4B
:2055C0002D2D2D2D2D2D2D2D2D2D2D2D2D2D2D2D2D2D2D2D2D2D2D2D2D2A0D0A0000000025
:2055E0007C202020202020202020202020202020202020202020202020202020202020204F
:2056000020202020202020202020432041204E202D205620432043204D202D2055205320ED
:20562000422020202020202020202020202020202020202020202020202020202020202048
:2056400020202020202020202020207C0D0A00007C202020202020202020202020202020FB
:20566000202020202020202020202020202020202020202020202020432041204E202D20AB
:205680005620432043204D202D2052205320322033203220202020202020202020202020B8
:2056A0002020202020202020202020202020202020202020202020202020207C0D0A0000F7
:2056C0002A2D2D2D2D2D2D2D2D2D2D2D2D2D2D2D2D2D2D2D2D2D2D2D2D2D2D2D2D2D2D2D2D
:2056E0002D2D2D2D2D2D2D2D2D2D2D2D2D2D2D2D2D2D2D2D2D2D2D2D2D2D2D2D2D2D2D2D0A
:205700002D2D2D2D2D2D2D2D2D2D2D2D2D2D2D2D2D2D2D2D2D2D2D2D2D2D2D2D2D2D2D2DE9
:205720002D2D2D2D2D2D2D2D2D2D2D2A0D0A7C20202020202020202020202020202020209D
:20574000202020202020202020202020202020202020202020202020202020202020202049
:20576000202020202020202020202020202020202020202020202020202020202020202029
:20578000202020202020202020202020202020202020202020202020207C0D0A7C2020207A
:2057A0002020202020202020202020202020202020202020202020202020202020202020E9
:2057C00020202042204F204F2054204C204F20412044204520522020204D204F2044204579
:2057E0002020202020202020202020202020202020202020202020202020202020202020A9
:20580000202020202020207C0D0A7C202020202020202020202020202020202020202020F9
:20582000202020202020202020202020202020202020202020202020202020202020202068
:20584000202020202020202020202020202020202020202020202020202020202020202048
:205860002020202020202020202020202020202020202020207C0D0A7C2020202020202099
:20588000202020202020202020202020202020202020202020202020202020202020202008
:2058A000535720566572203A200000002020202020202020202020202020202020202020F7
:2058C00020202020202020202020202020202020202020207C0D0A2A2D2D2D2D2D2D2D2D23
:2058E0002D2D2D2D2D2D2D2D2D2D2D2D2D2D2D2D2D2D2D2D2D2D2D2D2D2D2D2D2D2D2D2D08
:205900002D2D2D2D2D2D2D2D2D2D2D2D2D2D2D2D2D2D2D2D2D2D2D2D2D2D2D2D2D2D2D2DE7
:205920002D2D2D2D2D2D2D2D2D2D2D2D2D2D2D2D2D2D2D2D2D2D2D2D2D2D2D2D2D2D2D2DC7
:205940002D2D2A0D0A7C2020202020202020202020202020202020202020202020202020F0
:2059600020202020202020202020205052455353203C53504143453E20544F20424547493A
:205980004E20444F574E4C4F41442020202020202020202020202020202020202020202081
:2059A000202020202020202020202020202020207C0D0A2A2D2D2D2D2D2D2D2D2D2D2D2D0E
:2059C0002D2D2D2D2D2D2D2D2D2D2D2D2D2D2D2D2D2D2D2D2D2D2D2D2D2D2D2D2D2D2D2D27
:2059E0002D2D2D2D2D2D2D2D2D2D2D2D2D2D2D2D2D2D2D2D2D2D2D2D2D2D2D2D2D2D2D2D07
:205A00002D2D2D2D2D2D2D2D2D2D2D2D2D2D2D2D2D2D2D2D2D2D2D2D2D2D2D2D2D2D2A0D09
:205A20000A0D0A2020202020202020202020202020202020202020202020202020202020A5
:205A400020202020202020202020202020202020202020202020282029000000B05F000006
:205A6000000000100001000078030000B060000000020010141000003C030000D8600000DD
:205A8000141200108C00000094030000D860000000C00720004000009403000010010000A6
:205AA00043000000F8FFFFFF004040404040404040404141414141404040404040404040E9
:205AC000404040404040404040050202020202020202020202020202022020202020202083
:205AE0002020200202020202020290909090909010101010101010101010101010101010D8
:205B0000101010100202020202028888888888880808080808080808080808080808080889
:205B20000808080802020202400000000000000000000000000000000000000000000000FD
:205B4000000000000000000000000000000000000000000000000000000000000000000045
:205B6000000000000000000000000000000000000000000000000000000000000000000025
:205B8000000000000000000000000000000000000000000000000000000000000000000005
:205BA00000000000000000000000000085BFFFFF26A8FF7F0100000020A9FF7FB0B0A88087
:205BC00078A9FF7F01000000F8A9FF7FB0B0A88058AAFF7F0100000088AAFF7FB0B0A880C5
:205BE000A0AAFF7FB0B0AA8010ABFF7FB0B0A88028ABFF7FB0B0AE80DEABFF7FB0AA0380CF
:205C000010ACFF7FB0B0AA8078ACFF7FD0E7FF7F90ACFF7FDCE7FF7FFCACFF7F01000000C7
:205C200010ADFF7FE0E7FF7F64ADFF7FECE7FF7F6CADFF7FF8E7FF7FA0ADFF7FB0B0A880BD
:205C40000CAEFF7FB0B0AA803CAEFF7F0100000054AEFF7FB0B0AC8088AEFF7FB0B0AA80CF
:205C6000B4AEFF7FB0B0A88034AFFF7FB0B0AA8080AFFF7F0100000098AFFF7FB0B0AC80D2
:205C8000ECAFFF7FB0B0AA8018B0FF7FB4E7FF7F38B0FF7FB0B0AA8088B0FF7FB0B0A880D4
:205CA0009CB0FF7FB0B0AC80F0B0FF7FB0B0A880F4B0FF7FB0B0AA800CB1FF7F0100000000
:205CC00030B1FF7FB0B0AA8084B1FF7F0100000088B1FF7FB0AB0080C0B1FF7F74E7FF7FCD
:205CE0000CB2FF7F98E7FF7F84B2FF7FB0B0AA80D0B2FF7FB0B0AC80F0B2FF7FB0B0A880F9
:205D00005CB3FF7F0100000060B3FF7FB0B0A880BCB3FF7F84E7FF7FF4B5FF7FB0B0A88057
:205D2000FCB5FF7FC0E7FF7F08B8FF7F0100000018B8FF7FE0E7FF7F6CB8FF7FECE7FF7F4A
:205D40004CB9FF7FF8E7FF7F1CBAFF7F0100000030BAFF7FFCE7FF7F94BAFF7F0100000078
:205D600090BAFF7F00E8FF7F00BBFF7FB0B0AA8068BBFF7F00840080E4BBFF7FB0B0AA80E6
:205D800008BCFF7FB0AA07803CBCFF7FB0AB088062BCFF7FB0B0AC808ABCFF7F010000009A
:205DA0009EBCFF7FE8E7FF7FB4BCFF7FB0A8098010BDFF7F0100000048BDFF7FB0A809803F
:205DC00070BDFF7F01000000F8BDFF7FB0B0A8801CBEFF7F0100000034BEFF7FB0B0AA8009
:205DE00064BEFF7F0100000078BEFF7FB0B0AA80EABEFF7F01000000F4BEFF7FA0E7FF7F68
:205E000058BFFF7FA8E7FF7FA2BFFF7FBCE7FF7FB2BFFF7FC4E7FF7FF4BFFF7FCCE7FF7F66
:205E20000EC0FF7F010000005CC0FF7FB0B0AC8094C0FF7FB0B0AA80F0C0FF7F0100000064
:205E4000FCC1FF7FB0B0AC8060C4FF7F010000007CC4FF7FB0AF0480ECC4FF7F0100000008
:205E6000E6C4FF7FB0B0AC800EC5FF7FB0AF008000C6FF7F0100000024C6FF7FB0B0A88009
:205E800040C6FF7FB0B0AA8004C7FF7F01000000AAC7FF7FB0B0AC8020C8FF7F01000000C8
:205EA00066C8FF7FB0AC0180B4C8FF7F0100000030C9FF7FB0B0AA807CC9FF7F50E7FF7FE5
:205EC00044CAFF7FB0B0AA8086CAFF7F0100000044CBFF7F70E7FF7F7ECBFF7FB0B0AA802A
:205EE000ACCBFF7F01000000D8CEFF7FB0A9008000CFFF7FB0B0A88016CFFF7F0100000076
:205F000042DAFF7FB0B0AE8010DDFF7F010000006CDDFF7FB0A9008094DDFF7F010000005D
:205F200094DDFF7FB0B0AC80D2DDFF7FB0B0A880E0DDFF7FB0B0AC807CDEFF7FDF840580AA
:205F400034DFFF7F010000003CDFFF7FDF840F8018E1FF7F0100000030E1FF7FB0B0A88095
:205F60004CE1FF7F010000006CE2FF7F8CE6FF7F8CE2FF7F0100000088E2FF7FB0B0A8805C
:205F8000A0E2FF7F01000000A0E2FF7FDF84098008E3FF7F5F840A80E0E3FF7FB0AD02801E
:205FA0001CE4FF7F010000002AE4FF7FB0B0A880000000000000000000000000000000004E
:205FC0000000000000000000000000000000000000000000000000000000000000000000C1
:205FE0000000000000000000000000000000000000000000000000000000000000000000A1
:20600000000000000000000000000000000000000000000000000000000000000000000080
:20602000000000000000000000000000000000000000000000000000000000000000000060
:20604000000000000000000000000000000000000000000000000000000000000000000040
:20606000000000000000000000000000000000000000000000000000000000000000000020
:20608000000000000000000000000000000000000000000000000000000000000000000000
:2060A0000000000000000000000000000000000001FF01FF01FF01FF01FF01FF01FF01FFE0
:2060C00001FF01FF01FF01FF01FF01FF01FF01FF0131330101000000FFFFFFFFFFFFFFFF61
:2060E000FFFFFFFFFFFFFFFFFFFFFFFFFFFFFFFFFFFFFFFFFFFFFFFFFFFFFFFFFFFFFFFFC0
:20610000FFFFFFFFFFFFFFFFFFFFFFFFFFFFFFFFFFFFFFFFFFFFFFFFFFFFFFFFFFFFFFFF9F
:20612000FFFFFFFFFFFFFFFFFFFFFFFFFFFFFFFFFFFFFFFFFFFFFFFFFFFFFFFFFFFFFFFF7F
:20614000FFFFFFFFFFFFFFFFFFFFFFFFFFFFFFFFFFFFFFFFFFFFFFFFFFFFFFFFFFFFFFFF5F
:207FE000FFFFFFFFFFFFFFFFFFFFFFFFFFFFFFFFFFFFFFFFFFFFFFFFFFFFFFFF808051AAA2
:2080000062EE125B54D30100000008208186000000F002F800F05CFA0AA090E8000C824428
:208020008344AAF10107DA4501D100F051FAAFF2090EBAE80F0013F0010F18BFFB1A43F00F
:20804000010318479C000000CC0000000A444FF0000C10F8013B13F0070408BF10F8014B4F
:208060001D1108BF10F8015B641E05D010F8016B641E01F8016BF9D113F0080F1EBF10F82C
:20808000014BAD1C0C1B09D16D1E58BF01F801CBFAD505E014F8016B01F8016B6D1EF9D579
:2080A0009142D6D370470000103A24BF78C878C1FAD8520724BF30C830C144BF04680C6015
:2080C000704700000023002400250026103A28BF78C1FBD8520728BF30C148BF0B607047C0
:2080E000CC5102000000001000010000A8800000CC52020000020010E00100004C80000049
:2081000058530200E0030010D0100000C4800000FFFFFFFFFFFFFFFFFFFFFFFFFFFFFFFFAB
:20812000FFFFFFFFFFFFFFFFFFFFFFFFFFFFFFFFFFFFFFFFFFFFFFFFFFFFFFFFFFFFFFFF5F
:20814000FFFFFFFFFFFFFFFFFFFFFFFFFFFFFFFFFFFFFFFFFFFFFFFFFFFFFFFFFFFFFFFF3F
:20816000FFFFFFFFFFFFFFFFFFFFFFFFFFFFFFFFFFFFFFFFFFFFFFFFFFFFFFFFFFFFFFFF1F
:20818000FFFFFFFFFFFFFFFFFFFFFFFFFFFFFFFFFFFFFFFFFFFFFFFFFFFFFFFFFFFFFFFFFF
:2081A000FFFFFFFFFFFFFFFFFFFFFFFFFFFFFFFFFFFFFFFFFFFFFFFFFFFFFFFFFFFFFFFFDF
:2081C000FFFFFFFFFFFFFFFFFFFFFFFFFFFFFFFFFFFFFFFFFFFFFFFFFFFFFFFFFFFFFFFFBF
:2081E000FFFFFFFFFFFFFFFFFFFFFFFFFFFFFFFFFFFFFFFFFFFFFFFFFFFFFFFFFFFFFFFF9F
:20820000FFFFFFFFFFFFFFFFFFFFFFFFFFFFFFFFFFFFFFFFFFFFFFFFFFFFFFFFFFFFFFFF7E
:20822000FFFFFFFFFFFFFFFFFFFFFFFFFFFFFFFFFFFFFFFFFFFFFFFFFFFFFFFFFFFFFFFF5E
:20824000FFFFFFFFFFFFFFFFFFFFFFFFFFFFFFFFFFFFFFFFFFFFFFFFFFFFFFFFFFFFFFFF3E
:20826000FFFFFFFFFFFFFFFFFFFFFFFFFFFFFFFFFFFFFFFFFFFFFFFFFFFFFFFFFFFFFFFF1E
:20828000FFFFFFFFFFFFFFFFFFFFFFFFFFFFFFFFFFFFFFFFFFFFFFFFFFFFFFFFFFFFFFFFFE
:2082A000FFFFFFFFFFFFFFFFFFFFFFFFFFFFFFFFFFFFFFFFFFFFFFFFFFFFFFFFFFFFFFFFDE
:2082C000FFFFFFFFFFFFFFFFFFFFFFFFFFFFFFFFFFFFFFFFFFFFFFFFFFFFFFFFFFFFFFFFBE
:2082E000FFFFFFFFFFFFFFFFFFFFFFFFFFFFFFFFFFFFFFFFFFFFFFFFFFFFFFFFFFFFFFFF9E
:20830000FFFFFFFFFFFFFFFFFFFFFFFFFFFFFFFFFFFFFFFFFFFFFFFFFFFFFFFFFFFFFFFF7D
:20832000FFFFFFFFFFFFFFFFFFFFFFFFFFFFFFFFFFFFFFFFFFFFFFFFFFFFFFFFFFFFFFFF5D
:20834000FFFFFFFFFFFFFFFFFFFFFFFFFFFFFFFFFFFFFFFFFFFFFFFFFFFFFFFFFFFFFFFF3D
:20836000FFFFFFFFFFFFFFFFFFFFFFFFFFFFFFFFFFFFFFFFFFFFFFFFFFFFFFFFFFFFFFFF1D
:20838000FFFFFFFFFFFFFFFFFFFFFFFFFFFFFFFFFFFFFFFFFFFFFFFFFFFFFFFFFFFFFFFFFD
:2083A000FFFFFFFFFFFFFFFFFFFFFFFFFFFFFFFFFFFFFFFFFFFFFFFFFFFFFFFFFFFFFFFFDD
:2083C000FFFFFFFFFFFFFFFFFFFFFFFFFFFFFFFFFFFFFFFFFFFFFFFFFFFFFFFFFFFFFFFFBD
:2083E000FFFFFFFFFFFFFFFFFFFFFFFFFFFFFFFFFFFFFFFFFFFFFFFFFFFFFFFFFFFFFFFF9D
:20840000FFFFFFFFFFFFFFFF01FFFFFFFFFFFFFF6E290CF0D38470290CF0B985662911F01D
:208420009383652911F09083672911F08D836129AFF3008003681B0A28BF41F0800169297C
:208440000CF0808464290CF07D8475290CF07A846F290CF0468578290CF08585E9290DF0E5
:208460001F84E4290DF01C84F5290DF01984EF290CF04385F8290CF084850368DB0928BFBF
:2084800041F0800163290DF0D78373290DF0DC83E3290DF0F983F3290DF0FE830020704759
:2084A0001FB59DE803000EF04DFA0DF0C1F804000020002110F056F9401C60600020002174
:2084C00010F066F9E0600CF089FE1FBD10B510BD0EF010FC1146FFF7E3FF00F0ABF80EF042
:2084E0004DFC03B4FFF7F2FF03BC00F003F900000BF05AFE00F0A8F90BF064FE0BF054FE5C
:2085000001F06CFC0BF05EBE0BF04EFE4FF0000003F052FF0BF056BE0BF046FE4FF0010093
:2085200003F04AFF0BF04EBE0BF03EFE4FF0020003F042FF0BF046BE0BF036FE4FF00300DC
:2085400003F03AFF0BF03EBE02B5714631F0010104390BF0BFFE02BD00BF00BF00BF00BFB7
:20856000704700BF00BF00BF00BF00BF00BF00BF00BF00BF00BF00BF7047000000BF00BFDA
:2085800000BF00BF7047000000BF00BF00BF00BF70470000FEB442464B4654465D463EB4F9
:2085A0000CF054FF3EBC90469946A246AB46FEBC00F030F880EC200B7047C0EC200B704736
:2085C00090EC200B7047D0EC200B704785460D98DDF838E00F9B5DF8042B20E90C009DE87A
:2085E000FE1F854601BD4DF808ED0DF1080E4DF804ED2DE9FF1F002102B4694681B00DF069
:20860000CCFDDDF840E012B07047000060BB0100C0CB01004DF808ED0DF1080E4DF804EDF7
:208620002DE9FF1F002102B4694681B00DF01CBE704700BF0EB500F093F80B4909484FF4DC
:20864000007208600A4909480860002109A08DE807000B464FF4E062642108480BF03FF811
:2086600000200EBD31880000800300103D880000BC03001064656275670000009928010066
:208680001348016841F4007101601248016841F48021016010481149A1EB000100F009F8E5
:2086A0000F481049A1EB000100F003F80E488047FEE74FEA91014FF0113204C00139FCD178
:2086C0007047000006480549064A034B7047000014ED00E024ED00E000C30720000008200E
:2086E00000C0072000C30720118000004FF0FF3070477047FEE7194800680BF019BA174861
:20870000002100680BF0CEB92DE9F041134D0C4608352E1D0746A94201D0B44201D1FFF706
:20872000EEFF3946206800F0B3F8AC4201D0B44201D1FFF7E0FF0020BDE8F081006800F0C0
:20874000AEB8064910B5091D0860091D0860091D08600BF077F90149086010BD00020010F9
:2087600010B5EFF31084012080F310880BF07CFF00F00AF803490248086084F3108810BD50
:20878000E58800008403001010B5EFF31084012080F31088074915200BF0F6FF1F21152084
