:020000040000FA
:2000000000000820F50400000000010142000000000000000000000000000000C9FAF6DEE4
:200020000000000000000000000000000000000000000000000000000000000000000000C0
:200040000000000000000000000000000000000000000000000000000000000000000000A0
:20006000000000000000000000000000000000000000000000000000000000000000000080
:20008000000000000000000000000000000000000000000000000000000000000000000060
:2000A000000000000000000000000000000000000000000000000000000000000000000040
:2000C000000000000000000000000000000000000000000000000000000000000000000020
:2000E000000000000000000000000000000000000000000000000000000000000000000000
:200100000000000000000000000000000000000000000000000000000000000000000000DF
:200120000000000000000000000000000000000000000000000000000000000000000000BF
:2001400000000000000000000000000000000000000000000000000000000000000000009F
:2001600000000000000000000000000000000000000000000000000000000000000000007F
:2001800000000000000000000000000000000000000000000000000000000000000000005F
:2001A00000000000000000000000000000000000000000000000000000000000000000003F
:2001C00000000000000000000000000000000000000000000000000000000000000000001F
:2001E0000000000000000000000000000000000000000000000000000000000000000000FF
:200200000000000000000000000000000000000000000000000000000000000000000000DE
:200220000000000000000000000000000000000000000000000000000000000000000000BE
:2002400000000000000000000000000000000000000000000000000000000000000000009E
:2002600000000000000000000000000000000000000000000000000000000000000000007E
:2002800000000000000000000000000000000000000000000000000000000000000000005E
:2002A00000000000000000000000000000000000000000000000000000000000000000003E
:2002C00000000000000000000000000000000000000000000000000000000000000000001E
:2002E0000000000000000000000000000000000000000000000000000000000021436587AE
:2003000000F002F800F067F80AA090E8000C82448344AAF10107DA4501D100F05CF8AFF270
:20032000090EBAE80F0013F0010F18BFFB1A43F00103184754640000946400000A4410F85A
:20034000014B14F00F0508BF10F8015B240908BF10F8014B6D1E05D010F8013B6D1E01F89E
:20036000013BF9D1641E03D0641E01F8015BFBD19142E4D370470000103A24BF78C878C198
:20038000FAD8520724BF30C830C144BF04680C60704700000023002400250026103A28BF11
:2003A00078C1FBD8520728BF30C148BF0B6070471FB59DE8030003F0C5FF03F03DF9040097
:2003C0000020002104F080FD401C606002F00AFF1FBD10B510BD04F0AFF81146FFF7E8FF17
:2003E00000F07AF804F0ECF803B4FFF7F2FF03BC00F0A7F8D0F800D0D0F804F000BF00BF05
:2004000000BF00BF704700BF00BF00BF00BF00BF00BF00BF00BF00BF00BF00BF70470000BB
:2004200000BF00BF00BF00BF7047000000BF00BF00BF00BF70470000FEB442464B465446F1
:200440005D463EB402F0FBFE3EBC90469946A246AB46FEBC00F032F8704700BF80EC200BB3
:200460007047C0EC200B704790EC200B7047D0EC200B704785460D98DDF838E00F9B5DF8DF
:20048000042B20E90C009DE8FE1F854601BD4DF808ED0DF1080E4DF804ED2DE9FF1F002114
:2004A00002B4694681B003F074FEDDF840E012B07047000028640000B06800004DF808EDF5
:2004C0000DF1080E4DF804ED2DE9FF1F002102B4694681B003F0C4BE10B501F031FF4FF449
:2004E000FA71032001F06EFF00F02EF801F02EF9002010BD0948016841F4007101600848E4
:20050000016841F48021016006488047FEE7000005480649064A074B7047000014ED00E06B
:2005200024ED00E00103000000C007200000082000E0072000E0072001464FF0FF3070473D
:20054000704700BFFEE7000000BF00BFEFF310810846012282F3108800BF00BF44F23A01E2
:20056000274A11602021274A116000BF2549096801F040010029F9D00321224A9C3A1160DD
:2005800001211F4AC2F80C111F491D4A843211600121121F1160AA21194A8C32116055216C
:2005A000174AC2F88C1000BF15498831096801F080610029F8D00321114A80321160AA210D
:2005C0000F4AC2F88C1055210D4A8C32116000210C4A983A11600B4A08321160121D116016
:2005E0000A49074AC43211600021054AC2F8C81100BF00BF80F3108800BF00BF704700002F
:2006000000C00F40A0C10F40310002001880400010B500BF00BFEFF310800446012181F37B
:20062000108800BF00BF01F0F3FD00F06FF800F007F800BF00BF84F3108800BF00BF10BDA5
:2006400010B500BF00BFEFF310800446012181F3108800BF00BF0021134800F07DF800BF4F
:2006600000BF84F3108800BF00BF10BD10B5024600BF0E4900BF00BF08468488631E8380E2
:200680001CB101230468236003E0002304682360838000BF01F108000146044B2033984206
:2006A000EAD300BF10BD00006D0600002012001001460020086001207047EFF310821146CA
:2006C000012282F3108803685A1C02600BB9064A116070470168491E016019B902490968AC
:2006E00081F31088704700000012001010B50648046803E0D4E9011088472468002CF9D194
:2007000001F04AFE10BD00000412001010B500BF00BFEFF310800446012181F3108800BFC1
:2007200000BF0B494FF0FF3001F0E0FD1F214FF0FF3001F0AFFD07484FF0E02148610720C0
:20074000086100BF00BF84F3108800BF00BF10BDED0600009F8601002DE9F04107460E4657
:200760004FF000080C2004F0F3FA05464FF001084760866000BF4FF00008044600BF00BF37
:20078000EFF310810846012282F3108800BF00BF0A49096819B10A4909680C6001E00749FB
:2007A0000C6007490C600021216000BF00BF80F3108800BF00BFBDE8F0810000041200102C
:2007C000081200102DE9F0410546884607482EB20027046820683A4631460368204698479E
:2007E0000020BDE8F0810149086070470C1200100146087870472DE9F04781460D461446ED
:20080000C4F11000C6B205E00021484601F0F8FA601EC4B2002CF7D118E02846FFF7E8FFF9
:200820000746B84602F0D2FC006810F8080000F03E0008B1384600E02E2082460022514621
:20084000484604F096F9701EC6B26D1C002EE4D1BDE8F0872DE9F04107460E461446C4F102
:200860001000C5B206E0002257A1384601F05EFB601EC4B2002CF6D111E03046761CFFF753
:20088000B7FF804600224146384601F0E9FA012D03D00021384601F0B3FA681EC5B2002D79
:2008A000EBD1BDE8F08170B506460C46207800F00F0500223046216801F0EAFA002243A10B
:2008C000304601F033FB2A4630462168FFF7C2FF0021304601F094FA2A4630462168FFF7E2
:2008E0008AFF0021304601F079FAC5F1100120680844206070BD2DE9F04104460D461746EB
:2009000000223A21204604F034F926464FF00008306841464268304690470CB1211D00E02F
:200920000021084601F0A4FB00BF0CB1211D00E000210846002101F07FFB512814D006DCE4
:200940000D280DD01B2812D02028EED106E058280CD0712807D07828E7D106E02F700DE0DD
:20096000012028700AE000BF00BF00BF00BF0021204601F033FA0020BDE8F08100220821B2
:20098000204604F0F6F80120F6E777B581B0064614460021304601F021FA009400BF0025F3
:2009A00005E002A93046FFF77EFF681CC5B29DF800008542F5DB224669463046FFF79BFF7A
:2009C0000028ECD17FBD00002D2D20003A20000070B504460D4600202080656005F6FF7071
:2009E000A060204600F094F8204600F03DF8204670BD00002DE9F04104460D46164627E0B0
:200A000015F8011B2288501C2080154881542088B0F5805F1CD300202080204600F034F868
:200A2000204600F021F8606800F580506060A06800F58050A060A068B0F5802F07D30120D6
:200A400002F020FC07460022064902F022FD00BF301EA6F101018EB2D2D1BDE8F08100001A
:200A600000020010185E00000146002000BFFF22044B1A54421C92B21046B2F5805FF6D3A3
:200A8000704700000002001038B5044601F084FC6946606801F054FB38B1012002F0F2FB45
:200AA00005460022124902F0F4FC01F075FC9DF80010084601F068FB38B1012002F0E2FB0A
:200AC000054600220A4902F0E4FC01F065FC094B094802880948616801F0DCFA38B1012018
:200AE00002F0D0FB05460022014902F0D2FC38BD185E0000A0860100DC58000000020010EA
:200B000010B50446208810B12046FFF7BDFF10BD70B5054601F040FC1521082001F034FB5D
:200B200038B1012002F0AEFB04460022094902F0B0FC01F031FC084A1521082001F0D6FA25
:200B400038B1012002F09EFB04460022014902F0A0FC70BD185E0000A086010010B50446E3
:200B6000204603F0D9FF0446002104F1200000F0DDFAA0F120041D4820601830606000BF9C
:200B800000BFEFF310810846012282F3108800BF00BF1749096841F00801154AC43AC2F805
:200BA000C4108321134A11730921117000211171212182F828101146097B01F07F011173CA
:200BC000012111720C49096841F050010A4A11601146096C41F02001116400BF00BF80F3DF
:200BE000108800BF00BF204610BD00009C610000C4C00F4000C0004000C0024070B504466B
:200C00000D46294604F1200000F064FA00BF0E48007D00F0010010B10B48007870BD002D46
:200C2000F5D004F1200000F068FA0028EFD04FF0FF30F3E770B504460D46241F294620467F
:200C4000FFF7DCFF70BD000000C00040024600BF00BFEFF310810846012383F3108800BF1E
:200C600000BF0321074B197200BF00BF80F3108800BF00BF704710B50446241F2046FFF748
:200C8000E5FF10BD00C0004070B504460E461546294604F1200000F01DFA00BF0948007D6D
:200CA00000F0200018B107490E70002070BD002DF4D004F1200000F020FA0028EED04FF00B
:200CC000FF30F3E700C0004070B504460D46294604F1200000F0FEF900BF0948007D00F061
:200CE000400008B1002070BD002DF6D004F1200000F003FA0028F0D04FF0FF30F3E7000089
:200D000000C0004010B50446204603F005FF0446012104F1200000F009FAA0F120042148D5
:200D200020601830606000BF00BFEFF310810846012282F3108800BF00BF1B49096841F038
:200D40001001194AC43AC2F8C4108321174A11730921117000211171212191621146097BAC
:200D600001F07F011173012111721149096841F080410F4A11601146496841F00101516066
:200D80000C49096841F480010A4A11604FF48001D16100BF00BF80F3108800BF00BF2046AF
:200DA00010BD0000C4610000C4C00F400000014000C0024000C0092070B504460D46294611
:200DC00004F1200000F086F900BF1A48007D00F00100D8B100BF184800BF00BFEFF3118265
:200DE0001146F82383F3128800BF00BF012203681A600522828000BF00BF81F3118800BF78
:200E000000BF00BF00BF0B48007870BD002DDCD004F1200000F071F90028D6D04FF0FF3019
:200E2000F3E770B504460D46241F29462046FFF7C3FF70BD0000014038120010024600BF77
:200E400000BFEFF310810846012383F3108800BF00BF0321074B197200BF00BF80F31088D8
:200E600000BF00BF704710B50446241F2046FFF7E5FF10BD0000014070B504460E4615467F
:200E8000294604F1200000F025F900BF1648007D00F02000E0B114490E7000BF134800BFD1
:200EA00000BFEFF311821146F82383F3128800BF00BF012203681A600522828000BF00BF4F
:200EC00081F3118800BF00BF00BF00BF002070BD002DDBD004F1200000F00FF90028D5D00A
:200EE0004FF0FF30F3E70000000001403012001070B504460D46294604F1200000F0EAF8FF
:200F000000BF0948007D00F0400008B1002070BD002DF6D004F1200000F0EFF80028F0D047
:200F20004FF0FF30F3E700000000014010B50446204603F0F1FD0446002104F1200000F062
:200F4000F5F8A0F12004044820601830606001F0EFFB204610BD00005461000070B50446E9
:200F60000D46294604F1200000F0B4F800BF00BF1B48006808B9012000E00020D8B100BF8B
:200F8000184800BF00BFEFF311821146F82383F3128800BF00BF012203681A6005228280CD
:200FA00000BF00BF81F3118800BF00BF00BF00BF01F034FB70BD002DD9D004F1200000F082
:200FC0009CF80028D3D04FF0FF30F3E770B504460D46241F29462046FFF7C0FF70BD0000AE
:200FE000A40A38233812001010B5044601E001F015FB00BF0748006808B9012000E0002045
:201000000028F4D110BD10B50446241F2046FFF7EBFF10BDA40A382370B504460E4615468A
:20102000294604F1200000F055F800BF00BF1848006808B9012000E00020E8B1F0B201F09B
:2010400041FB00BF134800BF00BFEFF311821146F82383F3128800BF00BF012203681A603F
:201060000522828000BF00BF81F3118800BF00BF00BF00BF002070BD002DD7D004F120008A
:2010800000F03BF80028D1D04FF0FF30F3E70000A00A38233012001070B504460D4601F012
:2010A000EFFA002070BD000070B50546002400BF074850F8240020B1054951F8240000F070
:2010C00077F8601CC0B204460328F1DB70BD00001412001010B500BF00BFEFF310831A46F7
:2010E000012484F3108800BF00BF416000BF00BF82F3108800BF00BF10BD10B5014600BFFC
:2011000000BFEFF310831A46012484F3108800BF00BF4B680BB9012300E00023184600BFCE
:2011200000BF82F3108800BF00BF10BD70B504460D4625700020606000BF00BFEFF3108071
:201140000646012181F3108800BF00BF154840F825401548007830B10020134908700021D2
:201160001248FFF7F9FA00BF00BF86F3108800BF00BF204670BD10B500BF00BFEFF31082D5
:201180001146012383F3108800BF00BF00220378044C44F8232000BF00BF81F3108800BF93
:2011A00000BF10BD1412001010120010A9100000416811B14168491E4160704738B54FF47F
:2011C0000040406840B34FF400404068401C18B34FF400404068114988421DD868464FF0B1
:2011E000FF31016000BF4FF400404568041D00BF14F8011B684600F0D7FB681E051EF7D186
:2012000000BF0098C0434FF400410968884201D1012038BD0020FCE70020FAE7F87F03004F
:201220002DE9F34104460D4614262089401C208100BF2946204600F023F80120BDE8FC8105
:2012400002F0E2F802F0CCF90020F7E702F0DCF8301EA6F10101CEB202D002F0C1F9E8E793
:2012600002F0BEF9204600F0EDF8012002F00AF807460022014902F00CF90000705E0000F7
:201280002DE9F34704468846616811B16168091D00E00021084600F0EBFE228811B20022B5
:2012A000606803F066FC1520206000BF204600F079F8204600F02EF806464146204600F031
:2012C0005BF80746204600F09BF80546AF4208D12EB100220621606803F04BFCE6E7BDE8D4
:2012E000FC87012001F0CEFF81460022084902F0D0F802F089F8616811B16168091D00E0CB
:2013000000210846642100F04FFD01F0EBFF0000445E00002DE9F0410546284600F070F8C8
:201320000446284600F06CF80646A019C0B2FF2815D1287A401EC0B2A04202D10120BDE830
:20134000F081287AC0B2A04201D10020F7E7012001F098FF80460022054902F09AF80120D2
:2013600001F090FF07460022024902F092F800002C5E0000505E00002DE9F04107460C4699
:201380000025002600BF384600F03AF8A0552844C5B2701CC0B206468028F4DB2846BDE8F7
:2013A000F08100002DE9F047054600BF284600F027F8012804D004280CD01828F6D101E0FB
:2013C000BDE8F087012001F05DFF814600220A4902F05FF8062600276C6820683A46314658
:2013E000036820469847012001F04CFF80460022024902F04EF80000385E0000685E000019
:2014000070B50546696811B16968091D00E0002108464FF4FA6100F00FFE0446601C38B931
:20142000012001F02FFF06460022024902F031F8E0B270BD5C5E00001522026041600022C3
:20144000028170472DE9F0410446616811B16168091D00E000210846642100F0A5FC1826A4
:201460000027656828683A4631460368284698470026656828683146426828469047BDE8AB
:20148000F081000010B5104803F0B1FB082812DA0D4803F0ACFB08280BD2DFE800F0040547
:2014A00006070A0A080900BF00BF00BF00BF00BF00E010BD00BFFFF781FE18B148F2080053
:2014C000FEF798FF00BFF4E70001001031B5ADF5A86D0446002263A16748006800F026FD9E
:2014E00021460DF23450FFF7A7FF24AD284600F0D1FF0546002085F8940405F590605F4A54
:2015000006CAC0E9071200BF4FF4004121A8FFF75FFA00BF69460DF23450FFF781FE08B3BD
:2015200020AA694624A800F04BFABDF88020694621A8FFF75FFA002251A14F48006800F012
:20154000F5FC00BFBDF83C050546002229464A48006800F0B5FC00224AA14748006800F07A
:20156000E5FC33E0002249A14348006800F0DEFC00BF9DF82405B8B121A8FFF7C1FA00222C
:2015800044A13D48006800F0D1FC00213A48006803F0E6FA002243A1204600F0C7FC00219E
:2015A000204603F0DDFA0AE021A8FFF7B1FA012001F068FE054600223F4901F06AFF24A814
:2015C00003F0C5F801200DF2445D30BDA2E701F01BFF002239A12848006800F0A7FC01F0C1
:2015E000FFFF1FE001F010FF002239A12248006800F09CFC01F0F4FF14E001F005FF0022A9
:2016000039A11D48006800F091FC01F0E9FF09E001F0FAFE00223EA11748006800F086FCC1
:2016200001F0DEFF0DF23450FFF70CFF00211248006803F095FA0CB1211D00E000210846A9
:2016400040F6B83100F0B0FB00223BA1204600F06DFC0021204603F083FA24A803F077F8EE
:201660000020B0E70D0A446F776E6C6F6164696E672E2E2E0D0A00000C12001040530000C4
:20168000233A00002D4F4B2D0D0A00002D454F542D0D0A00446F776E6C6F6164204F4B0D8A
:2016A0000A0000000D0A5B444F574E4C4F41442D4F4B5D0D0A000000FC5D0000464C41539C
:2016C00048207772697465206572726F720D0A00584D4F44454D207472616E7366657220A7
:2016E0006572726F720D0A00494D41474520636F7272757074206F7220756E737570706FDC
:201700007274656420666F726D61740D0A000000496E7465726E616C206572726F72203A79
:2017200020556E657870656374656420657863657074696F6E0D0A000D0A5B444F574E4C78
:201740004F41442D4641494C5D0D0A0010B5FFF799FE00F001F810BD2DE9F0438BB0FEF777
:2017600057FF01A8FFF7FAF900252E4603F054FA48B9282003F0ECFA07460126FFF7D6FB4A
:201780000746002608E0282003F0E2FA80460125FFF7B8FA80460025044601A8FFF723F854
:2017A00000BF00BF00BFEFF310821146012383F3108800BF00BF564A107800BF00BF81F357
:2017C000108800BF00BF00BF052822D1002251A101A800F0ABFB002101A803F0C1F92046E4
:2017E000FFF774FE60B10022534901A800F09EFB002101A803F0B4F90321454803F0E0F999
:2018000000224EA101A800F091FB002101A803F0A7F900225249204600F088FB03F0FCF9B7
:2018200008B9504800E05048814600224946204600F07CFB00224D49204600F077FB0020F2
:201840000090817A0A230222204600F0D1FB00222E21204603F08DF900200090C17A0A2322
:201860000222204600F0C4FB0020017B0246204603F07FF900223EA1204600F057FB00F0E1
:201880009DFF814600224946204603F072F900223A49204600F04AFB4FF000091AE00022CC
:2018A00037A1204600F042FB364810F809100022204603F05EF900222921204603F059F935
:2018C00009F10100C11700EB91718910A0EB810101F0FF090CB1211D00E0002108466421DA
:2018E00000F0AAFB2028DAD1002227A1204600F01DFB0021204603F033F90521044803F0FD
:201900005FF901A803F046F90BB0BDE8F0830000000100100D0A426F6F746C6F616465728E
:20192000203A20426567696E20646F776E6C6F61642E2E2E0D0A0000546200000D0A426FB1
:201940006F746C6F61646572203A20446F776E6C6F6164206661696C6564210D0A000000BE
:20196000986200000C6300007C630000EC6300002020485720566572203A2000D8650000ED
:2019800008080000485300000D0A0A426567696E20584D4F44454D20646F776E6C6F616434
:2019A000206E6F772E0D0A0002784A40034B53F82220036882EA1322026070474C530000CB
:2019C0002DE9F84F04460E461746B0468020C11700EBD161491100910020388025E000BF9D
:2019E000D4F87C020068834620225946404603F02FFB4FF49460005904EB60054FF49460CD
:201A0000005D00F0010010B9D4F89C0406E02868D4F89C1400EB0109D9F8000082463A4643
:201A200031462846D04708F120080098411EC9B200910028D3D1BDE8F88F00002DE9F04741
:201A400004460F461646B4F89804B4F89614884201D1012000E00020804642462046D4F8B0
:201A6000A81200F073FD204600F0BEFD81461F2104F51F7003F0E3F881450DD0002221A157
:201A80002748006800F052FA012001F0FBFB81460022244901F0FDFC1E2104F51F7003F031
:201AA000CEF805461E2D0DDD00221FA11C48006800F03CFA012001F0E5FB814600221949CF
:201AC00001F0E7FC00BFD4F87C02006881463088C1192A46484603F0BBFA308828443080EE
:201AE000B8F1000F05D1B4F89804401CA4F8980405E004F59060154A06CAC0E90712BDE818
:201B0000F08700004552523A20446174612043524320696E76616C6964210D0A000000005A
:201B20000C120010FC5D00004552523A20496E76616C696420696D61676520646174612017
:201B40006C656E677468210D0A0000004C5700002DE9F04104460E461746002204F52B712F
:201B6000204600F0F3FC204600F03EFD05461F2104F51F7003F063F885420DD0002227A1A0
:201B80002D48006800F0D2F9012001F07BFB054600222A4901F07DFC002104F51F7003F03F
:201BA0004EF868B1002226A12348006800F0BEF9012001F067FB05460022204901F069FCC3
:201BC0000120A4F89804022104F51F7003F037F80546012104F51F7003F031F84FF480719A
:201BE00001FB0050A4F89604B4F8960468B900221BA11148006800F099F9012001F042FB8C
:201C0000054600220D4901F044FC04F590601B4A06CAC0E90712BDE8F08100004552523AB7
:201C2000204865616465722043524320696E76616C6964210D0A00000C120010FC5D00007D
:201C40004552523A20496D61676520666F726D617420494420696E76616C6964210D0A00C9
:201C60004552523A20496D616765206C656E677468207A65726F210D0A00000054570000D9
:201C800070B504460D461646204600F097FC04F59060024A06CAC0E9071270BD5C57000096
:201CA0002DE9F04704468946924604F51F7704F12C063D4606F5FC784146284601F061F9FE
:201CC00080F0010000BF68B100220CA11148006800F02CF9012001F0D5FA054600220E4971
:201CE00001F0D7FB012084F8940404F590600B4A06CAC0E90712BDE8F08700004552523ADD
:201D0000204D4143204D69736D61746368210D0A000000000C120010FC5D00006457000002
:201D200070470000F7B504460E461746002204F52B71204600F00AFC00BFD4F87C020068C1
:201D400005462946204600F0C9FB04F590600A4A06CAC0E90712FEBD01F056FB002207A119
:201D60000F48006800F0E2F8012001F08BFA054600220C4901F08DFB6C5700004552523A22
:201D80002043616E2774206372656174652073657373696F6E206B6579210D0A000000001D
:201DA0000C120010FC5D00002DE9F04104460D4605B901252646306841683046884700BF23
:201DC00000BF26462F4630683946026830469047401C0028F5D1BDE8F081000070B50546C5
:201DE0000C46224616A1284600F0A0F870BD70B505460C4622460721284602F0BAFE70BDB8
:201E000070B505460C4622462021284602F0B1FE70BD70B506460D4600240CE009A0015D40
:201E20002A46304602F0A5FE401C10B94FF0FF3070BD601CC4B2032CF0DB0020F8E700007C
:201E40000D0A000008200800F8B505460E4614460223082231462846009400F0C9F8F8BD67
:201E6000F8B505460E4614461023022231462846009400F0BDF8F8BDF8B505460E461446EC
:201E80001023042231462846009400F0B1F8F8BDF8B505460E46144610230822314628463A
:201EA000009400F0A5F8F8BDF8B505460E4614460A23032231462846009400F099F8F8BDA5
:201EC000F8B505460E4614460A23052231462846009400F08DF8F8BDF8B505460E461446BF
:201EE0000A231A4631462846009400F081F8F8BD2DE9F04704460E461746254606F00F0006
:201F000005A111F80080B94628684A464146036828469847BDE8F08730313233343536377C
:201F20003839414243444546000000002DE9F04705460C4617460FE02E4614F8018BB9465A
:201F400030684A464146036830469847401C18B94FF0FF30BDE8F08720780028ECD100BF1F
:201F6000F8E72DE9F04107460C4615461E460BE014F8011B32463846FFF7BAFF401C18B9F8
:201F80004FF0FF30BDE8F081281EA5F10101CDB2EEDC0020F6E72DE9F04389B007460D4677
:201FA000164698464FF0200920240BE0B5FBF6F006FB1050C1B2601EC0B2044601AA11549C
:201FC000B5FBF6F5002DF1D1202C05D10021601EC0B2044601AA1154C4F12000C2B201A8F8
:201FE000011943463846FFF7BCFF09B0BDE8F0832DE9F04788B080460C4616461D46DDF80D
:2020000040904FF0200A374600BFB4FBF5F005FB1040C1B2781EC0B207460DF80010B4FBDB
:20202000F5F4002FF1D14B46324669464046FFF798FF08B0BDE8F08738B504460D46201D60
:202040000188002909DD0188491E8AB20280811C31F812100091012100E0002111B1BDF926
:20206000000038BD20682946026820469047F8E770B50546291D162002F07EFE041E03D09F
:202080000020208000BF00BF286841682846884770BD00002DE9F0478AB004460D461646DF
:2020A0001F463320059006950794089609970DF11408E94600BF00BFEFF31080824601213C
:2020C00081F3108800BF00BF49464046064A904700BF00BF8AF3108800BF00BF00BF0098D2
:2020E000C0B20AB0BDE8F087F11FFF1F2DE9F0438BB004460D4616463420069007940895CB
:20210000099606AF0DF1040800BF00BFEFF310808146012181F3108800BF00BF41463846F9
:20212000064A904700BF00BF89F3108800BF00BF00BF0198C0B20BB0BDE8F083F11FFF1F9D
:2021400010B502460B46002100BF01EB41000D4C54F8200090420ED801EB410004EB8000FB
:202160004068904207D301EB410004EB8000007A1870002010BD481CC0B201461E28E4D366
:202180000720F7E7745700002DE9F0418AB004460D46322005900694079505AE6F4600BF0D
:2021A00000BFEFF310808046012181F3108800BF00BF39463046074A904700BF00BF88F366
:2021C000108800BF00BF00BF0098C0B20AB0BDE8F0810000F11FFF1F10B50B490B4802F0C4
:2021E00097FC0949091D0948083002F091FC064908390648103002F08BFC0349091F034876
:20220000183002F085FC10BD600438232012001000BF00BFEFF310800146012282F31088CE
:2022200000BF00BF002000BF0A4A0B4B43F82020421CD2B21046402AF6D31A46074B1A6085
:2022400000BF00BF81F3108800BF00BF704700BFFEE700004F2200000000001008ED00E0C5
:20226000204A115470470246002000BF1E4B03EBC00393F90030934205D11B4B03EBC00319
:202280005B6819707047431CDBB21846062BEDD300BFF7E770B504460D4600BF00BFEFF341
:2022A00010800646012181F3108800BF00BFE806010E002C02DAAFF2510001E0AFF25F00BE
:2022C00002462046904700BF00BF86F3108800BF00BF70BD70B504460D4629462046FFF7B2
:2022E000D9FF70BD00E400E0E058000010B500BF00BFEFF310831A46012484F3108800BFD2
:2023000000BF0E4C00F1100344F8231000BF00BF82F3108800BF00BF10BD30B504460D46D9
:2023200029462046FFF7E2FF30BD30B504460D4629462046FFF7DAFF30BD000000000010E1
:2023400010B54FF08040007800F0040010B11148407800E000200F4908700120487000BF13
:2023600000BFEFF310800446012181F3108800BF00BF00F011F84FF08040007820F00400B2
:202380004FF08041087000BF00BF84F3108800BF00BF10BD0001001000BF00BFEFF31081EB
:2023A0000846012282F3108800BF00BFAA214A0711725521117200BF00BF80F3108800BF41
:2023C00000BF704770B505460C460CB9FF2409E01348844202D94FF0FF3403E04FF47A7076
:2023E0004443641E00BF00BFEFF310800646012181F3108800BF00BFFFF7CEFF4FF080402A
:20240000446000204FF08041086108460570FFF7C3FF00BF00BF86F3108800BF00BF70BDDA
:202420003789410010B500BF00BFEFF31080012181F3108800BF00BFFFF7AEFFFF204FF039
:20244000804148600020086103200870FFF7A4FF00BF00BFEFF310810846012282F31088E7
:2024600000BF00BFAA214A071172117200BF00BF80F3108800BF00BF00BFFEE710B5044602
:20248000D4F8A80218B1D4F8A80202F05DFC204610BD000010B50446204602F091FD0446CA
:2024A0000C4904F12C0002F05BFDA0F12C0404F51F7002F085FDA0F51F740020C4F8A802F1
:2024C000054904F52B7002F015FDA0F52B74204610BD000015590000355900002DE9F04766
:2024E00006460F464FF000084FF4F47002F030FC04464FF00108394602F0FCFC041E4FF0D3
:2025000000082546C6F8A80201D0BDE8F087012000F0B8FE81460022014900F0BAFF000050
:20252000045E00002DE9F04704460D4604F12C0604F51F77A8464FF480794B4642463946D7
:20254000304600F062FC00BFBDE8F0872DE9F0418CB004460D46164631462046FFF7E2FFAC
:2025600001A908460A1D026000BF0146081D01F10C022023DF0000BF026000BF00BF03717A
:20258000C78000BF011F00BF04F51F7101A802F02DFD2F4604F51F784146384600F0A8F96D
:2025A00000BF27463946404600F027FD00BF01A9204602F01BFD0CB0BDE8F08170B50446BC
:2025C00000212046FFF7AEFF04F52B7504F51F763146284600F08CF900BF25463146284641
:2025E00000F0F4FC00BF70BDF8B50546684600210022027041708022827000BF00BFD5F824
:202600007C02006806461F223146684602F0F6FC00BF9DF8014000BF2046F8BD70B500BFEB
:2026200000BFEFF311800546F82181F3128800BF00BF00BF1148006C20F0FF000F49086421
:2026400000BF00BF4FF000500C499C31086000BFFDF7D4FE0948406DC4B200BF4FF000509C
:2026600006499831086000BFFDF7CDFE00BF00BF85F3118800BF00BF204670BD00C00920D3
:2026800010B500BF00BFEFF311800446F82181F3128800BF00BF00BF4FF000500849C863CB
:2026A00000BFFDF7BDFE00BF4FF000500449886300BF00BF00BF84F3118800BF00BF10BD8E
:2026C00000C0092070B5044600BF00BFEFF311800546F82181F3128800BF00BF00BF1348A7
:2026E000006C40F0FF001149086400BF6FF0FF0008650846446500200865FDF797FE00BF23
:202700004FF0805009499C31086000BFFDF78EFE00BF4FF0805005499831086000BF00BF19
:2027200000BF85F3118800BF00BF70BD00C0092000BF00BFEFF310810846012282F31088C6
:2027400000BF00BF00BF51071A4A116000BF00BF4910184A983AC2F8981000BF00BF4900DB
:20276000916300BF00BF8900916300BF1146096A41F0204111621146D1F8801041F040516A
:20278000C2F880100C49096D45F2555211430A4A11651146496E41F0206151661146C96C25
:2027A00041F00841D16400BF00BF80F3108800BF00BF704798C0092000C0024010B52C48F0
:2027C000007858B300202A49087000BF00BF00BFEFF310810846012282F3108800BF00BFBF
:2027E0002449096841F48051224AC43AC2F8C4102149224A11602249496841F48021204A5A
:2028000051601146496C41F40021516400BF00BF80F3108800BF00BF00BF00BF00BF00BFED
:2028200000BFEFF311831A46F82484F3128800BF00BF124B1B6843F08073104C236000BFB4
:2028400000BF82F3118800BF00BF00BF00BF0B4A506800F00042002AF9D0C0F30B1291001C
:2028600040F6FF70B1FBF0F10648405C10BD000011120010C4C00F400418200000400340AA
:2028800000C00240105900002DE9F04103460C46002000BF5F7807FB02075E6856F827509F
:2028A000032100BF8C464FF0040808FB00C808F0FF07D4F80080D8F80080B84400BF46466C
:2028C00098F8007005F0FF0C87EA0C0788F800702D0A0E1EA1F10107FFB23946E2DC411C3C
:2028E000C9B208465D78A942D4DBBDE8F081000070B505460E46AC786FF00102314628465B
:2029000000F0A5F92246611ECCB231462846FFF7BBFF00223146284600F099F900BF274878
:2029200031460CC8284600F093F900223146284600F08DF9224A3146284600F03FFA621CED
:202940003146284600F083F9224631462846FFF79BFF00223146284600F079F9194A314606
:20296000284600F02FF900223146284600F06FF9601EC0B2041ED2DC114A3146284600F082
:202980001DFA00223146284600F061F90B4831460CC8284600F05CF9621C3146284600F02B
:2029A00056F9224631462846FFF76EFF4FF0FF323146284600F04BF970BD000058590000B1
:2029C000A65C0000965B000070B505460E460124A21E3146284600F03AF90022314628464C
:2029E000FFF752FF22463146284600F030F900BF274A3146284600F0E1F900223146284644
:202A000000F025F9234831460CC8284600F020F900223146284600F01AF91F4A3146284623
:202A200000F0D0F800223146284600F010F9224631462846FFF728FF621C3146284600F021
:202A400006F9601CC0B20446A9788842D0DB104A3146284600F0B2F900223146284600F0D8
:202A6000F6F80C4831460CC8284600F0F1F800223146284600F0EBF8224631462846FFF765
:202A800003FF6FF001023146284600F0E0F870BDA65B000060590000865B000070B50446EE
:202AA000002500BFE1B2394A515C24F0FF0241EA020000F065F80446681CC0B20546042829
:202AC000F0DB204670BD2DE9F04704460E46174600250020814600BF002200BF0002494613
:202AE0004B1C03F0FF0933681B685B5C1843511CC9B20A460429F1D1616841F82500681C72
:202B0000C0B2054621788842E6D100BF681E616851F82080207895FBF0F100FB115080B949
:202B2000404600F02DF88246FFF7B8FF0146227895FBF2F2D0B2164A125C120681EA020853
:202B40000DE0207808280AD1207895FBF0F100FB1150042803D14046FFF7A0FF8046217806
:202B6000691A606850F8210080EA0800616841F82500681CC0B20546B842C7D1BDE8F08719
:202B80000146080240EA116070470000A65B00006859000010B5024672B169B10748805C5B
:202BA000064C645C0319FF2B01DC184601E0A3F1FF00034C205C10BD0020FCE78659000094
:202BC000865A00002DE9F84F06468A4617464FF0000800BF002400BF002500200DF8040008
:202BE00000BF43462A465146304602F01DF890F8009007EB8401485D4946FFF7CBFF1DF871
:202C0000041048400DF80400681CC0B205460428E7DB601CC0B204460428DDDB002400BFE1
:202C2000434622465146304601F0FEFF1DF804100170601CC0B204460428F1DB08F10100E4
:202C4000C0B2804671788842C4DBBDE8F88F70472DE9FF4389B004468846012500BFDDE9B3
:202C60000B0104EB6106CDE90101CDE9030101F0010020B9DDE90B01CDE9050106E0DDE97B
:202C80000B01CDE9070131684718386881462A4641463046C847681CC0B205460428DEDB69
:202CA0000DB0BDE8F0832DE9F84306468846174674783D4600BF601EC0B2044603463A4646
:202CC0004146304601F0B0FF0178681EC0B205460DF80010002DEEDC757800BF601EC0B2F3
:202CE000044603463A464146304601F09DFF90F80090681EC0B2054603463A464146304616
:202D000001F092FF80F80090002CE7DC3C4600BF681EC0B2054603463A464146304601F0FF
:202D200083FF611EC9B20C461DF801100170002CEEDCBDE8F8832DE9F84307468846164650
:202D4000002500BF2B4632464146384601F06CFF00780DF80500681CC0B20546B042F1DBC4
:202D60000025344600BF2346611CCCB232464146384601F059FF90F800902B46691CCDB23E
:202D800032464146384601F04FFF80F800907878A042E8DC002400BF2B46691CCDB2324609
:202DA0004146384601F040FF2146621CD4B21DF801100170B442EFDBBDE8F8832DE9F047AF
:202DC000044688461546002600BF002700BF33463A464146204601F027FF007815F80090A3
:202DE00033463A464146204601F01EFF80F80090781CC0B207460428E9DB701CC0B206464A
:202E000061788842E1DBBDE8F0872DE9F04104460D4616461F4626B92946A06800F0EDF867
:202E200004E02A463946204600F007F8A1682068026820469047BDE8F08170B504460D465A
:202E400016462946204600F054F832462946204600F001F870BD2DE9F04104460E46154662
:202E600000BF2868C088B04216DD2946E06800F0ADF8E7682868C088801B401E1FFA80F8D9
:202E8000002301224146384600F07BF900BFD4E9020100F0B2F803E02946A06800F0ADF87B
:202EA000BDE8F0812DE9F04105460E460121284600F0CDF8D8B100BF28680079401EC7B2A9
:202EC0003946284601F03EFC04460078F1B24840207000BF28680079801EC7B23946284691
:202EE00001F030FC0446007880EA26202070BDE8F08170B504460D460021E06800F096F8F4
:202F0000E1682068026820469047A188E068FFF7C9FFE0680168C988A94203DDA188E068CC
:202F2000FFF7C0FFD4E9020100F067F870BD2DE9F04706460D461746C5F3C70805F00701D3
:202F40000120884000F0FF0930680079A0EB0800401E00F0FF084FB14146304601F0F2FBBC
:202F60000446007840EA0900207008E04146304601F0E8FB0446007820EA09002070BDE809
:202F8000F0872DE9F04104460D462068007929680979884218D1002600BF3146204601F05C
:202FA0004EFE07463146284601F049FE874202D00020BDE8F081701CC0B206462168097935
:202FC0008842EADB0120F4E70020F2E730B5024600BF13681B795B1ED8B200BF03460C68F3
:202FE0002468E45C00BF15682D681D442C70031EA0F10104E0B2F1D130BD30B5024600BF53
:2030000013681B795B1ED8B200BF044615682D6825442B460D682D682D5D1C7865401D704F
:20302000031EA0F10104E0B2EFD130BD10B50A46002100BF0B46046824681C4422704B1C03
:20304000DBB2194604682479A342F3DB10BDF8B504460D4635B90021204601F0F0FDC0F3AB
:20306000C010F8BD2068C088A84205DA00212046FFF7DCFF0020F4E72068C088A8420ED146
:2030800020680079401EC1B2204601F0D8FD00F0010600212046FFF7C9FF3046E1E7002098
:2030A000009000BF0020009020680079401EC0B2014600BF2268126850180378DA090378F5
:2030C0005B061B0E03709DF800301BB1037843F00103037000BF0092081EA1F10102D1B2AE
:2030E000E8D1681E80B2051EDCD19DF80000B8E72DE9F04104460E46174600BF3068007949
:20310000E178401A401E1FFA80F857B108F0FF01304601F017FB0546007821780843287055
:2031200009E008F0FF01304601F00CFB05460078217808402870A0782070BDE8F081F0B5A1
:203140001546059C0A46CE1701EB5676F610A1EBC607FF26BE4046700BB1FF2200E000226F
:2031600082700A46CE1701EB5676C6F3C706C67083EA04020AB1427801E04278D2430270AA
:20318000F0BD2DE9FC4104460E4617461D4601202B463A463146009001A8FFF7D0FF00BF8B
:2031A0002A46214601A8FFF7A3FF9DF80710481EC0B28DF807000029F2D13A46314620469E
:2031C000FFF7B5FEBDE8FC817047000010B500F033FA001D10BD00BFF11C00007047704767
:2031E0007047000070B5064C7C44064D7D4403E0206820448047241DAC42F9D170BD000011
:20320000EC360000EC36000070B5054600F01FFB0446284600F0F0FA38B12946A06900F00D
:2032200062FBC169491CC16102E0A5F12000C169012902D1A1698161A061012070BD70B561
:2032400000F005FB846905460CB900F0F0FA04F12006304600F0D0FA68B1E0692668012843
:2032600002D0401EE0610BE0A16904F17800A96100F0CCFA04E0E069012801D1A069A86181
:20328000304670BD70B5044600F0E1FA783405462646204600F01DFA040007D13146E869DD
:2032A00000F06CFA040001D100F07DFA0AA104F12000D1E90021C0E900210021A162E162AF
:2032C00061612161A161E161A868E0606868A06004F1780070BD000041524D00432B2B0033
:2032E0000000000070B500F0B2FA4469054614B9002000F058FAE06904F12006401CE061E5
:20330000304600F079FA002801D0266803E0286800F10100286002D04FF0000200E02268E3
:203320004FF000013046FDF797F83046FDF7AFF8304600F04DFA00002DE9F14DD0E90C85F8
:2033400081B00646D0F828A000F081FA0446A6F12007304600F058F8304600F04DFA08B1D1
:20336000606800E0B868206100F0AEFABDE8FC8D00F04AF86669BE4202D100F031F90DE063
:203380003069606100F02CF905E000F03DF800F04EFA00F025F960693061666100273C46A4
:2033A00006F1200B11E02E686B4600223146584600F08AF808B1FFF795FF3146104801F007
:2033C00043FC00B101274544641C5445EBD38FB1684601F07DFC0420FFF754FF694601F010
:2033E0006FFC0446684601F082FC064A0449204600F04FF8584600F0D6F900F0F1F8B5E7EF
:20340000845E0000EF4C000070B50546466A00F01EFA0446284600F0EFF920B129466069CE
:2034200000F061FA07E0A5F12000C169491EC1612168491E21604169491C4161016911B99B
:20344000616901616061284600F020FF304670BD73B50C4600F0FBF954F80C1C203C31B14F
:20346000E169491EE1610168491E01607CBD616804F1780509B1284688472846BDE87C40EE
:2034800000F0C4B9FFF7C0FF284600F0BFF9FFF729FF70B50D46A0F158044C49A1600121B9
:2034A00040F85C1C40E91E5200F0D1F901682A46491C016000212046FCF7CEFF2046FCF7CA
:2034C000E6FF204600F084F92DE9FF4D9A4693460E46804600F090F9002875D1A8F120005F
:2034E000012708F1580805680024CDF808803146284601F0A9FB10B1CAF8008062E0284640
:2035000001F03DFC0190304601F039FC00903049019801F099FB20B92D49009801F094FBC6
:2035200020B1DDE9001001F09FFB08BB2849019801F08AFBC0B1307A297A00F0030001F074
:203540000301641C31EA00023ED130EA010100D077B1C00700D100270298ED68F668002873
:20356000C5D000680290C2E7012C02D06CB109D02AE01849304601F067FB18B1BBF1000F66
:2035800022D1B9E7BBF1000F1ED11349019801F05BFB20B91149019801F056FBA0B1002033
:2035A0000090019033462A4603A902A801F0FAFB002804D00399CAF800101CB1022004B0B8
:2035C000BDE8F08D0120FAE70020F8E751340000CC5D0000AC5E0000D85D0000E45D00009A
:2035E00070B500F034F9446905460CB900F01FF96069401E606117D104F12006304600F073
:20360000FBF821696961E56928B104F17800266800F0FCF801E000202061002D04D1304663
:20362000BDE8704000F062BE70BD012300F094B9002300F091B900000048704760120010B9
:2036400000487047741200100B3020F0070070472DE9F04117460E460446FFF7F5FFA042BE
:20366000054633D9002F1CBF06F10C00FDF725F830467468F4B12168A94217D305F1080280
:2036800091423CBF6168416007D3626861194A602268521B0A6041602560002F1CBF06F1A2
:2036A0000C00FDF717F8201DBDE8F08120466468002CE0D12946304600F030FE0028D7D1C6
:2036C000002F1CBF06F10C00FDF704F80020BDE8F08110B5044600F015FE01682046BDE831
:2036E00010400122B4E770B516460D46041F002808BF70BD002E1CBF05F10C00FCF7DDFFCF
:203700002B465868002818BFA04238BF0346F8D31968CA18A24218BF5C6003D122681C46F2
:203720001144196021680A19824218BF606004D142686260006808442060002E1CBF05F140
:203740000C00FCF7C7FF70BD10B5044600F0DAFD01682046BDE810400122C4E710B500F05A
:2037600061FEBDE8104000F058BE10B58820FFF7B0FF002801D00021017010BD802902D802
:2037800008B1017809B100207047012100F8081B704718B100F10802914201D00020704733
:2037A00000210170704770B5054600F050F804461DB1284600F020F808B1A06801E055F89B
:2037C000140C206101202073BDE8704000F02FB8040001D0FFF718FE2046FFF7E4FF000048
:2037E00002680B689A4205D140684968884201D1012070470020704710B50349FFF7F0FFA0
:2038000080F0010010BD0000A85D000010B5044600F01DF8783CC0692146FFF7BAFF002836
:2038200004D12046BDE81040FFF78EBF10BD10B500F00DF8016919B100220261884701E025
:203840008068804700F0B6FD10B500F0B3FD70B500F05CFD04680546A4B92020FFF739FFC1
:20386000040011D0094900202C60C4E900010849A1602073206160610649A06109B1FFF790
:2038800074FFE061204670BD00F094FDE3380000493800000000000038B5684601F0FCF943
:2038A0000420FFF7EFFC694601F0EEF90446684601F001FA024A03492046FFF7EAFD0000BD
:2038C000B74C0000785E000010B5FFF7C0FF016919B100220261884701E04068804700F0CD
:2038E00069FDFFF7A4BF70B504000D4609D004F12000FFF775FF20B12068A84201D12046BA
:2039000070BD0020FFF7BEFCD5E90023A0F15801C1E90023002240F85C2C40F8642C40F830
:20392000682C40F8785D70BD017A51B9417A89B1491E417241680A1D4260096801600421BC
:203940000172C9B2491E017201680A0E0902016010467047B02070472DE9FF4D8CB05FEA37
:20396000000B4FF0000016460D4607900990059008900DD0BBF1010F0AD0BBF1020F01D0F0
:20398000002204E2A86BA864E86B04902C6C0FE095F85000C007E86C049078D10F9818B14D
:2039A00004980068C0F30740049901EB800442E00F98022811D02788002F68D06088241DE9
:2039C00000F00102394662F35F0161B1012934D002297DD00329EBD12FE12768002FECD096
:2039E00060680834ECE7BBF1000F24D0A96C002301EB000806A9009130460F22194600F0DF
:203A0000A6FA0698804516D808EB0701814212D9A96CA963201D0499C5E90F102846FFF7E0
:203A2000F3FB0028ACD020680F2240F31E0004443046049423E0241DBAE7BBF1000F27D0FD
:203A400006A90023009130460D22194600F07FFA0698296A88426ED1E86AA0426BD1206864
:203A600004A940F31E0004440023009130460F220494194600F054FA30460022049504A992
:203A800000230091194600F04BFA22463DE2D6E0A96C002301EB00080AA9009130460F228A
:203AA000194600F054FA0A987F1E804543D808EB070181423FD96768B81C0ED0781C0ED081
:203AC000206806ABC20F39462846FFF7FDFC00E033E078B302281DD004E0022257E105F195
:203AE0005800069004A90023009130460D22194600F02DFA0498EC622862069868622068F8
:203B0000022140F31E0002192846FCF7A5FC3A4680215FE004A90023009130460D2219464F
:203B200000F015FA0498EC6228620698A86205F12800E3E7FFE708343AE72168069121F00E
:203B40000048BBF1000F10D00AA90023009130460D22194600F0FBF90A98296A884240D123
:203B6000E86AA0423DD101203CE0A96C401E01EB000A0AA90023009130460F22194600F000
:203B8000E6F90A9882453AD80AEB0701814236D904F1040A00270AE06B4600222846DAF8D5
:203BA0000010FFF791FC20B90AF1040A7F1C4745F2D3474523D104A90023009130460D221E
:203BC000194600F0C4F90498EC6228620020D34A022168622846FCF73FFC062010B0BDE814
:203BE000F08D002058B10020C5E90A8004202863201D68630698404506D1012007900698C0
:203C0000404515D1002014E004EB8800002250F8041F134641F31E010C1804A9009130469D
:203C20000495114600F07CF930460F22049465E1042000EB88000444FDE60122A7E00498A2
:203C4000006801900498001D02900F9810B30198000C8DF80D0001980004019002208DF8AA
:203C60000C0001A8FFF760FE0446B0281AD03F2C41D800F03F01042000EB810706A90D2404
:203C80000023009130462246194600F060F90698384442E000208DF80D00019800020190D0
:203CA0000320DCE70998B0B905980028C5D004A8002300900E221946304600F048F9049988
:203CC000059105A90023009130460F22194600F027F9012008900798002870D0002204A947
:203CE0000091304613460495114600F019F90898002878D0FEE07F2C19D800F03F01042094
:203D000000EB810706A90D240023009130462246194600F01CF90698C01B049004A800237E
:203D2000009022461946304600F0FAF899E78F2C1AD80007040C01A8FFF7F6FD54EA0014AC
:203D40003FF4CBAE002322461946304600F016F908B103221BE0200401D501200990600467
:203D6000E4D5012005907CE79F2C16D800F00F020D2A0BD00F2A09D006A9002300910D24FF
:203D80003046194600F0E3F80698C6E7042201212846FCF761FB092020E7AF2C10D804F04C
:203DA00007000121401C81400A01103A200703D5012042F4804205900023194658E0AAE077
:203DC000B72C35D8B12C0FD0B22C15D0B328DDD101A8FFF7A9FD00F00F0100F0F000491C61
:203DE00041EA00322BE073E001A8FFF79DFD0200CCD00F2AE0D9C9E700273C4601A8FFF747
:203E000093FD00F07F01A1400F43000601D5E41DF4E706A90D2400230091304622461946E6
:203E200000F095F8069800EB870000F5017074E7BF2C07D800F00700401C40F4002201239D
:203E4000012115E0C72C25D809D101A8FFF76CFD02009BD00F2A99D80023042108E0C62C40
:203E60000DD000F00700401C40F4202203231946304600F083F800283FF458AF69E701A8DB
:203E8000FFF752FD00F00F0100F0F000491C41EA0032EBE7C82C0BD0C92C09D0CF2CAAD94E
:203EA000D72CA8D800F00700401C40F400220DE001A8FFF739FD00F00F01491C00F0F000CF
:203EC00041EA0032C82C01D102F580120523B7E704A8002300900F221946304600F037F8EC
:203EE0000499059105A90023009130460E22194600F016F8094930460F22049104A90023CC
:203F00000091194600F00CF8044A03212846FCF7A3FA072062E6082060E600003933000004
:203F200010B5029C31B101290DD003290BD004290BD108E04BB90F2A07D800EB820021682B
:203F40004160002010BD012010BD022010BD10B5029C31B101290DD003290BD004290BD19A
:203F600008E04BB90F2A07D800EB820040682060002010BD012010BD022010BD2DE9F04D8B
:203F8000C0B09846044631B1012918D0032979D0042979D176E0B8F1000F75D190B2231DD3
:203FA00000F40052A16B05E0C50701D020C91D6040081B1D0028F7D1F2BBA1635EE0150C47
:203FC00096B2102D01D2012000E000208246A819102801D9012700E00027B8F1010F03D012
:203FE000B8F1050F50D101E03FBB01E020284BD84FF0000BBAF1000F08D02078012805D149
:2040000084F800B004F1480080EC200B47B16078012805D184F801B004F1C800C0EC200B10
:20402000BAF1000F02D0684680EC200B20A883460FB1C0EC200B01E020E025E06B46A06BE5
:2040400008E0014603EBC502D1E900C1C2E900C108306D1C761EF4D24146B8F1010F00D06A
:20406000002100EB8100A063BAF1000F02D0184690EC200B17B15846D0EC200B002040B0C2
:20408000BDE8F08D0120FAE70220F8E710B50468904801F10802436803444FF0FF309342C1
:2040A00004D0136843F31E03134400E003460A6842F31E021144A14202D89C4201D301202E
:2040C00010BD002010BD33B50446824881B0824D0168426801441044401AC210029808238D
:2040E000801E029002A8009500F06FF97B49002370B1026842F31E020244A2644268012A11
:2041000009D0002A0ADA001DE064012020650BE00422636115E00222636112E042F31E02B8
:20412000001D1044C4E91303E26C1068002815DAC0F3036050B101280AD002280CD001222B
:2041400063612046FCF788F909203EBD644800E06448606100203EBD6348FAE740F31E00AC
:204160001044F6E70C4605462846216CFFF7ABFF50B9206C28616B6922462946012098470D
:20418000072803D00828EFD000F014F9201DFCF771F9F0B50446C068D3B00E46012768B366
:2041A0005820FFF796FA05002AD0142204F10C0105F10C0000F04EF9182204F1200105F14B
:2041C000200000F047F904F1380005F1380C0FC88CE80F00E560F06B30644022311D01A841
:2041E00000F038F98DF800708DF8017012AF32AD20461099FFF767FFD0B910E0E760EAE717
:20420000052236492046FCF727F905E09DF8010010B92846D0EC200B53B00920F0BD636941
:204220006A46214600209847062809D00828DFD09DF800000028E9D1384690EC200BE5E71A
:204240009DF8000010B9384690EC200B9DF8010010B92846D0EC200B31462046FFF782FFD3
:204260000546006908640C460A466B69294602209847072803D0082804D000F09BF8201D72
:20428000FCF7F8F821462846FFF76CFF70B5C1680546D1B101291AD00C46142205F10C004C
:2042A0000C3100F0D7F8182204F1200105F1200000F0D0F804F1380038350FC885E80F00F7
:2042C0002046BDE87040FFF73FBA00F073F80020E86070BDB40400008D400000010000FFBF
:2042E000313600002B360000000000008268002A02D001460120104770470000004870479B
:20430000401200100048704748120010004870477C120010704770477047704738B5044622
:204320000A4600206946AFF30080002808BF38BD02460099204600F024F9012038BD0120CD
:2043400000F067B9F8B5AFF30080054600200C46102000BF0646A819A0420DD932466946D6
:204360000020AFF30080070008BF00F052F90098A04218BF0546C419FFF7C4FF056007460E
:20438000F01D20F007004619284600F00AF8B44208BFF8BDA21B31463868BDE8F84000F027
:2043A000F0B800210160C0E901100C30FCF780B91020704710B5002000F024F9FCF709F8E4
:2043C000BDE810400120FCF7BCB82DE9F047984614460F468246DDF8209094B1012C0BD0EC
:2043E0004A465046650805FB08763146904700280CD00DDA2C46F0E74A46394650469047AE
:2044000010B10020BDE8F0873846FBE73046F9E7641B641E06EB0807DFE7002801D0FCF736
:2044200090B8704710B5002102A000F0D2F8012010BD00005349475056464E3A205075729F
:2044400065207669727475616C20666E2063616C6C65640010B5203AC0F00B80B1E81850FC
:20446000203AA0E81850B1E81850A0E81850BFF4F5AF5FEA027C24BFB1E81850A0E818500F
:2044800044BF18C918C0BDE810405FEA827C24BF51F8043B40F8043B08BF7047D20728BF04
:2044A00031F8023B48BF11F8012B28BF20F8023B48BF00F8012B70474FF0013C50F8042B49
:2044C00051F8043B9A4221D1A2EB0C03934313EACC1317D150F8042B51F8043B9A4215D18F
:2044E000A2EB0C03934313EACC130BD150F8042B51F8043B9A4209D1A2EB0C03934313EA6E
:20450000CC13DBD04FF00000704700BFD01A01BAB1FA81F101F0180122FA01F0CB40C1F1C6
:204520002001DBB2C0B2C01A2CFA01F3D11A914311EAC311E6D170477546FFF7DFFEAE46E9
:2045400005006946534620F00700854618B020B5FBF7DEFFBDE820404FF000064FF0000730
:204560004FF000084FF0000B21F00701AC46ACE8C009ACE8C009ACE8C009ACE8C0098D4658
:20458000704730B404468C464368002B18BF634538BF1846F8D303681844604507D0C81CC8
:2045A00020F0070000F1040CACEB0100121A2146CCF8002030BC00220CF10400FFF793B884
:2045C00010B50446AFF300802046BDE81040FBF70BBF70B505460C460A2000E06D1CFBF74C
:2045E000AFFF35B128780028F8D102E0641CFBF7A7FF14B120780028F8D1BDE870400A20CF
:20460000FBF79EBF10B500F00BF8BDE81040FFF704BF10B500F01CF8BDE81040FFF7FDBE76
:2046200010B5002102A0FFF7D4FF012010BD0000534947414252543A2041626E6F726D6115
:204640006C207465726D696E6174696F6E00000010B5012805D0002103A0FFF7BAFF0120CD
:2046600010BD09A1F8E7000053494752544D454D3A204F7574206F662068656170206D6545
:204680006D6F7279000000003A2048656170206D656D6F727920636F7272757074656400CA
:2046A00004F12000FCF767FDFBF7C6FE00BFFEF797FFFBF7C1FE00BFFEF792FF24A800F0DC
:2046C00046F8FBF7B9FE15B1404600F03DFB16B1384600F039FB01A800F05CFAFBF7ACFE8B
:2046E000FEF77EFFFBF7A8FEFBF7A6FEB8F1000F02D0204600F028FBFBF79EFEFEF770FF25
:20470000FEF76EFFFBF798FEFEF76AFFFBF794FE38B5684600F0F8FA0420FEF7B3FD6946D8
:2047200000F0EAFA0446684600F0FDFA024A03492046FEF7AEFE0000274D0000905E0000C5
:20474000016070470246106800680844704710B504462046FDF792FE044610BD2DE9F041BF
:20476000054614460E46506900F06EFA012718B1E7602562BDE8F081206A0028FAD0E06995
:20478000A842F7D13046A16900F05EFA0028F1D0606A18B1002027616062EBE7206A60629B
:2047A000E8E710B51446506900F04EFA002802D000202062E06010BD2DE9F04114689846D0
:2047C00016460D460746A047284600F0D8FA214900F03AFA30B1002332463846A968FFF737
:2047E000EBFF2AE0284600F0CAFA1B4900F02CFA18B305F110041AE0F06810B12079800721
:2048000014D544B1207910F0010F04D02146384600F084F802E0606807EB2020234632462F
:204820002168FFF7C9FF3069002811D10834E96805EBC1001030A042DED87468002C07D099
:204840004346324629463846A446BDE8F0416047BDE8F081D85D0000E45D00002DE9FF4D15
:2048600082B0824614468B464FF0000810460E9D00F085FA274900F0E7F978B1DA4504D1FF
:20488000A068059900F0E0F940BB0095A26859465046059BFFF7E2FF804636E0204600F031
:2048A0006EFA1D4900F0D0F978B32646103426E06068C10705D02146504600F02FF80746CA
:2048C00001E00AEB20275F450BD12068059900F0BBF930B12079A046800716D501202860F6
:2048E00013E02079800709D50095226859463846059BFFF7B3FF8046286830B90834F06870
:2049000006EBC0001030A042D2D806B04046BDE8F08D0000D85D0000E45D0000026849682B
:2049200002EB212109680844704700002DE9FF4D8CB01446DDE91C688B4600271046199D8E
:2049400000F01DFA704900F07FF998B3A0680F9900F07AF9C8B1DBF8000010B10C99884255
:2049600004D13078022801D0286828B1012028600020CBF80000C3E0012030701A98C8F8F4
:2049800000000C98CBF8000012E0DDE91A1202A880E846011898CDE90005A26859460F9BB5
:2049A0000C98FFF7C3FF002803D02868002800D10127A5E0FFE7204600F0E1F9534900F0C8
:2049C00043F9002869D018980B9440F3400008901898103440F30000099089E0606800F0FF
:2049E00001010A910C9969B10A9969B121460C98FFF794FF82461A9850B12079800707D593
:204A0000012006E00020F5E70C9901EB2020F1E70020009020680F9900F016F920B3DBF865
:204A2000000008B1504507D16068C10702D03178012901D0296829B1012028600020CBF853
:204A4000000029E0C00701D0022000E0012030700098C8F80000CBF800A03DE0089800E09A
:204A60000998401C4CD142E0009900208DF81C0007AACDE90428069006AB1898CDE902134B
:204A8000CDE900052268594650460F9BFFF74EFF0028286802D020B1002731E00028FBD128
:204AA00025E0069820B92079C00701D020680690307858B19DF81C10022901D1022805D0BD
:204AC0001B98006880B1069988420DD19DF81C0030701B9806990160D8F80000012730B166
:204AE0000A980028BCD0B9E701202860D4E708340B98C16800EBC1001030A0423FF66EAF34
:204B000010B03846BDE8F08DD85D0000E45D0000016000228280704770B50446204600F0BE
:204B200043F80446051D284600F014F8054607482860281D002120F8041900BF041F044879
:204B4000206010306060204670BD0000EC6100003461000001490160704700007C61000021
:204B600070B504460D462068294642682046904770BD70B504460D461646206832462946DB
:204B800003682046984770BD01490160704700008C61000010B5044604F12000FCF7EBFAED
:204BA000A0F12004204610BD10B504462046FFF7EBFF044601482060204610BDFC61000015
:204BC00070B504460D4600BF00BFEFF310800646012181F3108800BF00BF6570FDF722FC44
:204BE00000BF00BF86F3108800BF00BF70BD10B5014600BF00BFEFF310831A46012484F380
:204C0000108800BF00BF087800BF00BF82F3108800BF00BF10BD00000248406B012121EA06
:204C20001070704700C0092030B50546042404FB0324E0B20C6824680444204630BD024661
:204C400010680068405C704770B50C46A04207D0406800BF05462046406800BF854201D1D9
:204C6000012070BD002070BD70B50C46A04209D0406800BF05462046406800BF854201D050
:204C8000012070BD002070BD10B500F051F80149016010BD0C62000010B500F04FF801494F
:204CA000016010BD0C62000010B500F004F8BDE8104000F049B810B5AFF3008010BD00000D
:204CC00010B500F035F80149016010BD2062000010B500F033F80149016010BD206200001E
:204CE00010B500F004F8BDE8104000F02DB810B5AFF3008010BD000010B500F019F8014975
:204D0000016010BD3462000010B500F017F80149016010BD3462000010B500F004F8BDE8A7
:204D2000104000F011B810B5AFF3008010BD000001490160704700004862000001490160FF
:204D4000704700004862000010B5FEF7FDFC10BD10B5040007D1012405E0FEF771FC0068FD
:204D600000B9044880472046FEF7B3FC0028F4D010BD00001147000002460846704710B53A
:204D800030B1006820B14038C46B2CB1204610BDFEF782FD002010BDFEF77EFDF6E7002074
:204DA000FEF7DCBC2DE9F04D00248AB00126CDE908649B4617468A46254600B10068CAF818
:204DC000005080461046FFF7DAFF1149FFF73CFF08B1B86800E0032008A907AACDE90421F4
:204DE0008DF81C5006AB069509A9CDE90263CDE900015B463A4651464046FFF797FD10B169
:204E0000089800B101240AB02046BDE8F08D0000E45D00002DE9F0450E4601688BB082468E
:204E200051F8081C150001EB00040A9400684FF0000850F8047C18D0214800902148CDF8DC
:204E40000C80CDF8108001900DF1140CCDF80880CDF82080CDF824808CE86004394600232D
:204E60006A462046FFF7A8FC099C24BB01200290B7420BD002A8009033463A465146CDF8E8
:204E800008800A98FFF7EAFC0298A0B129463846FFF7DAFE08B10A9C0DE0CDF80C80CDF804
:204EA00000802B463A4603A90AA8CDF80480FFF779FF00B1039C0BB02046BDE8F0850000E1
:204EC0005D470000A347000010B500290AD00878002807D005487844FFF7EEFA002801D01D
:204EE000002010BD0248784410BD0000F2180000EA1800002DE9F34F85B083465C460827BF
:204F0000B8464FF00E090BF1080A782002AE0090069D311D3046FFF713FC0646301D202111
:204F2000CA0000BF056000BF00BF0171C28000BF061F00BF019600BF277084F8018084F848
:204F40000290C4F804A000BF00BF2046DDE90021FDF7B9FD00BFA346584607B0BDE8F08FC9
:204F600070B504460D4604F5FC7004F5097140F22542114B2360A280A060E16000BF0F48A6
:204F80002060294604F11000FFF7B4FFA0F1100404F5FC7000F014F8A0F5FC7404F50970F7
:204FA00000F00EF8A0F5097400BF0021A068FEF73DF800BF204670BD1C610000286100007F
:204FC00010B50446211D2046FFF7BAFB0446201D04F10C012022D30000BF016000BF00BF37
:204FE0000271C38000BF041F204610BD70B504460D4629462046FDF7E9FF70BDF0B5034658
:205000001FE018460C784678077804FA07F77E404670002500BF00BF467887783E402EB145
:205020004678312787EA4606467003E046787606360E46706E1CF6B23546082EECDB00BF67
:20504000491C101EA2F10104A4B22246D9D1F0BD10B503E010F8013B01F8013B131EA2F12B
:205060000104A2B2F6D110BD2DE9F04104460D4604F110062F4639463046FDF7A5FC00BF96
:20508000BDE8F081B0B0AA800200190001000000185E000000000000B0B0AC8030002D00F5
:2050A00001000000185E000000000000B0A900806000090001000000185E000000000000C0
:2050C000B0B0A88002000F0001000000185E000000000000B0B0AA803C00090001000000F0
:2050E000185E000000000000B0B0A88002002600B1F5FF7F00000000B0AC01800F001A0060
:2051000041C1FF7F685E00000F001A0041C1FF7F705E000042001B0001000000705E0000A6
:2051200000000000B0AE018059003200C7C1FF7F505E000006008A0077F5FF7F00000000D7
:20514000D0B20181B0B0A901CD00460083C4FF7F245E0000CD0046008DC4FF7F705E000037
:20516000CD00460097C4FF7FFC5D0000CD004600A1C4FF7FFFFFFFFF040012013DF5FF7F31
:205180001200160139F5FF7F040028012DF5FF7F12002C0129F5FF7F04003E011DF5FF7FBF
:2051A0001200420119F5FF7F040054010DF5FF7F3800580109F5FF7F00000000B0AD0A8041
:2051C0001000180013F5FF7F1400280003F5FF7F0C003C00F3F4FF7F68014800FBF4FF7FA4
:2051E00000000000B0AF00803600330001000000FC5D000000000000B0B0AE8064003D00DE
:2052000001000000FC5D000000000000B0B0AC809400290001000000FC5D00000000000091
:20522000B0B0AE802600210001000000FC5D000000000000B0AB02801F0026001DCBFF7FB7
:20524000045E00001200440099F4FF7F3000270001000000FC5D000000000000B0B0AA8050
:205260000200200085F4FF7F00000000B0B0A8802E000B000000000000000000B0B0AE80C6
:205280002200200069F4FF7F3000150001000000045E000000000000B0B0AE800200230096
:2052A0000000000000000000B0AC0B80260047000000000000000000B0B0AA800E001D00E5
:2052C0000000000000000000B0AB0080020029000000000000000000B0B0A8800200170027
:2052E00001000000905E000000000000DF8401800B00500097E0FF7FFFFFFFFF2100260048
:2053000071E0FF7FFFFFFFFF0A004600F5F3FF7F04005A00E9F3FF7F68005E00E5F3FF7F38
:2053200000000000B0AA018019002A0059E1FF7FFFFFFFFF02004200D1F3FF7F0000000015
:20534000811C0000000000002D5C7C2F00000000963007772C610EEEBA51099919C46D07B1
:205360008FF46A7035A563E9A395649E3288DB0EA4B8DC791EE9D5E088D9D2972B4CB60960
:20538000BD7CB17E072DB8E7911DBF906410B71DF220B06A4871B9F3DE41BE847DD4DA1A56
:2053A000EBE4DD6D51B5D4F4C785D38356986C13C0A86B647AF962FDECC9658A4F5C01148A
:2053C000D96C0663633D0FFAF50D088DC8206E3B5E10694CE44160D5727167A2D1E4033CF1
:2053E00047D4044BFD850DD26BB50AA5FAA8B5356C98B242D6C9BBDB40F9BCACE36CD83260
:20540000755CDF45CF0DD6DC593DD1ABAC30D9263A00DE518051D7C81661D0BFB5F4B421BF
:2054200023C4B3569995BACF0FA5BDB89EB802280888055FB2D90CC624E90BB1877C6F2F61
:20544000114C6858AB1D61C13D2D66B69041DC760671DB01BC20D2982A10D5EF8985B171D5
:205460001FB5B606A5E4BF9F33D4B8E8A2C9077834F9000F8EA8099618980EE1BB0D6A7FC3
:205480002D3D6D08976C6491015C63E6F4516B6B62616C1CD83065854E0062F2ED95066CA1
:2054A0007BA5011BC1F4088257C40FF5C6D9B06550E9B712EAB8BE8B7C88B9FCDF1DDD62BD
:2054C000492DDA15F37CD38C654CD4FB5861B24DCE51B53A7400BCA3E230BBD441A5DF4AD0
:2054E000D795D83D6DC4D1A4FBF4D6D36AE96943FCD96E34468867ADD0B860DA732D0444EB
:20550000E51D03335F4C0AAAC97C0DDD3C710550AA41022710100BBE86200CC925B56857B2
:20552000B3856F2009D466B99FE461CE0EF9DE5E98C9D9292298D0B0B4A8D7C7173DB359BC
:20554000810DB42E3B5CBDB7AD6CBAC02083B8EDB6B3BF9A0CE2B6039AD2B1743947D5EABC
:20556000AF77D29D1526DB048316DC73120B63E3843B64943E6A6D0DA85A6A7A0BCF0EE4A6
:205580009DFF099327AE000AB19E077D44930FF0D2A3088768F2011EFEC206695D5762F792
:2055A000CB67658071366C19E7066B6E761BD4FEE02BD3895A7ADA10CC4ADD676FDFB9F900
:2055C000F9EFBE8E43BEB717D58EB060E8A3D6D67E93D1A1C4C2D83852F2DF4FF167BBD1AF
:2055E0006757BCA6DD06B53F4B36B248DA2B0DD84C1B0AAFF64A0336607A0441C3EF60DFA6
:2056000055DF67A8EF8E6E3179BE69468CB361CB1A8366BCA0D26F2536E2685295770CCC5F
:2056200003470BBBB91602222F260555BE3BBAC5280BBDB2925AB42B046AB35CA7FFD7C217
:2056400031CFD0B58B9ED92C1DAEDE5BB0C2649B26F263EC9CA36A750A936D02A906099C3D
:205660003F360EEB8567077213570005824ABF95147AB8E2AE2BB17B381BB60C9B8ED292F9
:205680000DBED5E5B7EFDC7C21DFDB0BD4D2D38642E2D4F1F8B3DD686E83DA1FCD16BE81BD
:2056A0005B26B9F6E177B06F7747B718E65A0888706A0FFFCA3B06665C0B0111FF9E658F83
:2056C00069AE62F8D3FF6B6145CF6C1678E20AA0EED20DD75483044EC2B30339612667A70E
:2056E000F71660D04D476949DB776E3E4A6AD1AEDC5AD6D9660BDF40F03BD83753AEBCA9E1
:20570000C59EBBDE7FCFB247E9FFB5301CF2BDBD8AC2BACA3093B353A6A3B4240536D0BA72
:205720009306D7CD2957DE54BF67D9232E7A66B3B84A61C4021B685D942B6F2A37BE0BB482
:20574000A18E0CC31BDF055A8DEF022DA11C0000000000003D1A000000000000251D0000F1
:2057600000000000211D000000000000511B00000000000000000000FF0F00000000000071
:2057800000100000FF1F00000100000000200000FF2F00000200000000300000FF3F00001C
:2057A0000300000000400000FF4F00000400000000500000FF5F0000050000000060000041
:2057C000FF6F00000600000000700000FF7F00000700000000800000FF8F0000080000004A
:2057E00000900000FF9F00000900000000A00000FFAF00000A00000000B00000FFBF0000AC
:205800000B00000000C00000FFCF00000C00000000D00000FFDF00000D00000000E0000048
:20582000FFEF00000E00000000F00000FFFF00000F00000000000100FF7F010010000000DF
:2058400000800100FFFF01001100000000000200FF7F02001200000000800200FFFF0200A1
:205860001300000000000300FF7F03001400000000800300FFFF03001500000000000400E0
:20588000FF7F04001600000000800400FFFF04001700000000000500FF7F05001800000033
:2058A00000800500FFFF05001900000000000600FF7F06001A00000000800600FFFF060019
:2058C0001B00000000000700FF7F07001C00000000800700FFFF07001D000000001000004C
:2058E000FB0000001FED00E0FE00000022ED00E0FF00000023ED00E0F500000019ED00E00A
:20590000F400000018ED00E0F60000001AED00E04142434445466400BBB910605A3870C52D
:20592000528954972010BF9FCD202454C7428DB304AB4070FDE76CC904740CE522265CE1FF
:20594000A1A5A5705226323E1E2C4CDFAFE962B13A36976481000000A72C00000000000025
:20596000372D0000000000000001020408102040801B366CD8AB4D9A2F5EBC63C697356AF5
:20598000D4B37DFAEFC500FF190132021AC64BC71B6833EEDF036404E00E348D81EF4C714C
:2059A00008C8F8691CC17DC21DB5F9B9276A4DE4A6729AC90978652F8A05210FE12412F0FE
:2059C00082453593DA8E968FDBBD36D0CE94135CD2F14046833866DDFD30BF068B62B3253E
:2059E000E298228891107E6E48C3A3B61E423A6B2854FA853DBA2B790A159B9F5ECA4ED454
:205A0000ACE5F373A757AF58A850F4EAD6744FAEE9D5E7E6ADE82CD7757AEB160BF559CB36
:205A20005FB09CA951A07F0CF66F17C449ECD8431F2DA4767BB7CCBB3E5AFB60B1863B5230
:205A4000A16CAA55299D97B2879061BEDCFCBC95CFCD373F5BD15339843C41A26D47142A6D
:205A60009E5D56F2D3AB441192D923202E89B47CB8267799E3A5674AEDDEC531FE180D630D
:205A80008C80C0F770070103050F113355FF1A2E7296A1F813355FE13848D87395A4F702AE
:205AA000060A1E2266AAE5345CE43759EB266ABED97090ABE63153F5040C143C44CC4FD1F1
:205AC00068B8D36EB2CD4CD467A9E03B4DD762A6F10818287888839EB9D06BBDDC7F8198F0
:205AE000B3CE49DB769AB5C457F9103050F00B1D2769BBD661A3FE192B7D8792ADEC2F714A
:205B000093AEE92060A0FB163A4ED26DB7C25DE73256FA153F41C35EE23D47C940C05BEDF7
:205B20002C749CBFDA759FBAD564ACEF2A7E829DBCDF7A8E89809BB6C158E82365AFEA25E3
:205B40006FB1C843C554FC1F2163A5F407091B2D7799B0CB46CA45CF4ADE798B8691A8E3F4
:205B60003E42C651F30E12365AEE297B8D8C8F8A8594A7F20D17394BDD7C8497A2FD1C247A
:205B80006CB4C752F601020301010102030101010203030101020E0B0D09090E0B0D0D0945
:205BA0000E0B0B0D090E637C777BF26B6FC53001672BFED7AB76CA82C97DFA5947F0ADD4E5
:205BC000A2AF9CA472C0B7FD9326363FF7CC34A5E5F171D8311504C723C31896059A071208
:205BE00080E2EB27B27509832C1A1B6E5AA0523BD6B329E32F8453D100ED20FCB15B6ACB72
:205C0000BE394A4C58CFD0EFAAFB434D338545F9027F503C9FA851A3408F929D38F5BCB601
:205C2000DA2110FFF3D2CD0C13EC5F974417C4A77E3D645D197360814FDC222A908846EE55
:205C4000B814DE5E0BDBE0323A0A4906245CC2D3AC629195E479E7C8376D8DD54EA96C569D
:205C6000F4EA657AAE08BA78252E1CA6B4C6E8DD741F4BBD8B8A703EB5664803F60E6135CD
:205C800057B986C11D9EE1F8981169D98E949B1E87E9CE5528DF8CA1890DBFE642684199CD
:205CA0002D0FB054BB1652096AD53036A538BF40A39E81F3D7FB7CE339829B2FFF87348E44
:205CC0004344C4DEE9CB547B9432A6C2233DEE4C950B42FAC34E082EA16628D924B2765B7E
:205CE000A2496D8BD12572F8F66486689816D4A45CCC5D65B6926C704850FDEDB9DA5E155D
:205D00004657A78D9D8490D8AB008CBCD30AF7E45805B8B34506D02C1E8FCA3F0F02C1AF38
:205D2000BD0301138A6B3A9111414F67DCEA97F2CFCEF0B4E67396AC7422E7AD3585E2F9DD
:205D400037E81C75DF6E47F11A711D29C5896FB7620EAA18BE1BFC563E4BC6D279209ADB3D
:205D6000C0FE78CD5AF41FDDA8338807C731B11210592780EC5F60517FA919B54A0D2DE546
:205D80007A9F93C99CEFA0E03B4DAE2AF5B0C8EBBB3C83539961172B047EBA77D626E169C9
:205DA000146355210C7D000041524D00432B2B0000000000FC600000B45E0000A45E000084
:205DC000FC600000D65E0000A45E0000FC600000F85E0000C05D0000FC6000001C5F00008B
:205DE000B45D0000FC600000415F0000B45D0000FC600000675F0000A45E0000EC60000015
:205E00008F5F0000FC600000A95F0000105E0000EC600000CE5F0000FC600000DD5F0000B1
:205E2000245E0000EC600000F35F0000FC60000002600000705E0000FC60000018600000E2
:205E4000705E0000FC60000030600000705E0000FC60000048600000705E0000FC6000008C
:205E600061600000705E0000EC6000007A600000EC60000088600000FC60000098600000E5
:205E80009C5E0000FC600000A76000009C5E0000FC600000B96000009C5E0000EC600000F0
:205EA000C6600000EC600000D36000000C610000E06000004E31305F5F637878616269762E
:205EC0003131375F5F636C6173735F747970655F696E666F45004E31305F5F637878616261
:205EE00069763131375F5F70626173655F747970655F696E666F45004E31305F5F63787830
:205F0000616269763131395F5F706F696E7465725F747970655F696E666F45004E31305F06
:205F20005F637878616269763132305F5F73695F636C6173735F747970655F696E666F45FA
:205F4000004E31305F5F637878616269763132315F5F766D695F636C6173735F74797065AB
:205F60005F696E666F45004E31305F5F637878616269763132335F5F66756E64616D656ECD
:205F800074616C5F747970655F696E666F45004E3135426C6F636B5F446563727970746F07
:205FA00072354572726F7245004E35426C6F636B32364572726F725F4372656174655F4BAE
:205FC00065795F575F53657373696F6E45004E35426C6F636B354572726F7245004E3546EA
:205FE0006C61736831314572726F725F466C61736845004E35466C617368354572726F724B
:2060000045004E36586D6F64656D31304572726F725F53796E6345004E36586D6F64656DB3
:2060200031324572726F725F43616E63656C45004E36586D6F64656D31324572726F725F4F
:2060400043686B73756D45004E36586D6F64656D31334572726F725F4672616D696E6745CC
:20606000004E36586D6F64656D31334572726F725F54696D656F757445004E36586D6F641D
:20608000656D33456F7445004E36586D6F64656D354572726F724500537431306261645F6E
:2060A00074797065696400537431336261645F657863657074696F6E005374396261645F4B
:2060C000616C6C6F6300537439657863657074696F6E00537439747970655F696E666F0019
:2060E0007600000000000000B45D0000000000000000000000000000D85D000000000000E4
:206100000000000000000000F05D0000000000000000000000000000000000009F4D000046
:2061200000000000000000006950000000000000000000009F4D00009F4D0000FCFFFFFFD5
:20614000000000009F4D00009F4D0000000000000000000019100000991000005D0F000029
:20616000E90F0000FCFFFFFF00000000CD0F00000710000000000000000000009F4D00004F
:206180009F4D000000000000000000009F4D00009F4D00000000000000000000890C0000A6
:2061A000C90C0000FD0B00004D0C0000FCFFFFFF00000000350C0000770C000000000000EC
:2061C00000000000790E0000F10E0000B90D00003D0E0000FCFFFFFF00000000230E0000FE
:2061E000670E000000000000000000009F4D00009F4D000000000000000000009F4D000066
:206200009F4D000000000000785E0000B74C0000A94C00000000000000000000845E0000E2
:20622000EF4C0000E14C00000000000000000000905E0000274D0000194D0000000000002E
:20624000000000009C5E00000000000000000000000000000D0A426F6F746C6F6164657222
:20626000203A20457865637574696E67206170706C69636174696F6E207769746820636F76
:206280006E6669672064656661756C74732E2E2E0D0A0A0A000000000D0A2A2D2D2D2D2D0B
:2062A0002D2D2D2D2D2D2D2D2D2D2D2D2D2D2D2D2D2D2D2D2D2D2D2D2D2D2D2D2D2D2D2D3E
:2062C0002D2D2D2D2D2D2D2D2D2D2D2D2D2D2D2D2D2D2D2D2D2D2D2D2D2D2D2D2D2D2D2D1E
:2062E0002D2D2D2D2D2D2D2D2D2D2D2D2D2D2D2D2D2D2D2D2D2D2D2D2D2D2D2D2D2D2D2DFE
:206300002D2D2D2D2D2A0D0A000000007C202020202020202020202020202020202020207F
:2063200020202020202020202020202020202020202020202020432041204E202D205620A8
:20634000432043204D202D2055205320422020202020202020202020202020202020202033
:2063600020202020202020202020202020202020202020202020207C0D0A00007C202020CE
:206380002020202020202020202020202020202020202020202020202020202020202020FD
:2063A00020202020432041204E202D205620432043204D202D20522053203220332032200C
:2063C0002020202020202020202020202020202020202020202020202020202020202020BD
:2063E000202020202020207C0D0A00002A2D2D2D2D2D2D2D2D2D2D2D2D2D2D2D2D2D2D2DA9
:206400002D2D2D2D2D2D2D2D2D2D2D2D2D2D2D2D2D2D2D2D2D2D2D2D2D2D2D2D2D2D2D2DDC
:206420002D2D2D2D2D2D2D2D2D2D2D2D2D2D2D2D2D2D2D2D2D2D2D2D2D2D2D2D2D2D2D2DBC
:206440002D2D2D2D2D2D2D2D2D2D2D2D2D2D2D2D2D2D2D2D2D2D2D2A0D0A7C2020202020D4
:2064600020202020202020202020202020202020202020202020202020202020202020201C
:206480002020202020202020202020202020202020202020202020202020202020202020FC
:2064A0002020202020202020202020202020202020202020202020202020202020202020DC
:2064C00020202020207C0D0A7C20202020202020202020202020202020202020202020202D
:2064E00020202020202020202020202020202042204F204F2054204C204F20412044204523
:2065000020522020204D204F204420452020202020202020202020202020202020202020A4
:20652000202020202020202020202020202020202020207C0D0A7C202020202020202020CC
:2065400020202020202020202020202020202020202020202020202020202020202020203B
:2065600020202020202020202020202020202020202020202020202020202020202020201B
:206580002020202020202020202020202020202020202020202020202020202020202020FB
:2065A000207C0D0A7C2020202020202020202020202020202020202020202020202020204C
:2065C000202020202020202020202020535720566572203A200000002020202020202020CA
:2065E00020202020202020202020202020202020202020202020202020202020202020209B
:206600007C0D0A2A2D2D2D2D2D2D2D2D2D2D2D2D2D2D2D2D2D2D2D2D2D2D2D2D2D2D2D2DD1
:206620002D2D2D2D2D2D2D2D2D2D2D2D2D2D2D2D2D2D2D2D2D2D2D2D2D2D2D2D2D2D2D2DBA
:206640002D2D2D2D2D2D2D2D2D2D2D2D2D2D2D2D2D2D2D2D2D2D2D2D2D2D2D2D2D2D2D2D9A
:206660002D2D2D2D2D2D2D2D2D2D2D2D2D2D2A0D0A7C202020202020202020202020202027
:2066800020202020202020202020202020202020202020202020205052455353203C53508E
:2066A0004143453E20544F20424547494E20444F574E4C4F414420202020202020202020D3
:2066C000202020202020202020202020202020202020202020202020202020207C0D0A2A7D
:2066E0002D2D2D2D2D2D2D2D2D2D2D2D2D2D2D2D2D2D2D2D2D2D2D2D2D2D2D2D2D2D2D2DFA
:206700002D2D2D2D2D2D2D2D2D2D2D2D2D2D2D2D2D2D2D2D2D2D2D2D2D2D2D2D2D2D2D2DD9
:206720002D2D2D2D2D2D2D2D2D2D2D2D2D2D2D2D2D2D2D2D2D2D2D2D2D2D2D2D2D2D2D2DB9
:206740002D2D2D2D2D2D2D2D2D2D2A0D0A0D0A2020202020202020202020202020202020FF
:20676000202020202020202020202020202020202020202020202020202020202020202019
:206780002020282029000000646D0000000000100001000078030000646E00000002001007
:2067A000141000003C0300008C6E0000141200108C000000940300008C6E000000C0072042
:2067C00000400000940300001001000043000000F8FFFFFF004040404040404040404141D7
:2067E00041414140404040404040404040404040404040404005020202020202020202023D
:20680000020202020220202020202020202020020202020202029090909090901010101080
:206820001010101010101010101010101010101002020202020288888888888808080808FC
:20684000080808080808080808080808080808080202020240000000000000000000000070
:20686000000000000000000000000000000000000000000000000000000000000000000018
:206880000000000000000000000000000000000000000000000000000000000000000000F8
:2068A0000000000000000000000000000000000000000000000000000000000000000000D8
:2068C00000000000000000000000000000000000000000000000000001B9FFFFFA9AFF7FEE
:2068E00001000000F49BFF7FB0B0A8804C9CFF7F010000001C9DFF7FB0B0A880B49DFF7F0D
:2069000001000000E89DFF7FB0B0A8804C9EFF7FB0B0AC80E29EFF7FB0B0AE80389FFF7F16
